:020000040800F2
:1000000000000220F17D01082F2C0008372C000889
:100010003F2C0008472C00084F2C0008293000080E
:10002000000000000000000000000000572C000845
:10003000652C000800000000732C0008812C0008CB
:1000400029300008293000088D2C000829300008CC
:10005000293000082930000829300008293000081C
:1000600029300008A52C0008293000082930000894
:1000700029300008293000082930000829300008FC
:1000800029300008293000082930000829300008EC
:1000900029300008293000082930000829300008DC
:1000A00029300008293000082930000829300008CC
:1000B00029300008E12C0008F52C00082930000840
:1000C000092D00081D2D00082930000829300008DE
:1000D00029300008312D0008452D0008293000087E
:1000E000293000082930000829300008293000088C
:1000F0002930000829300008592D0008293000084F
:10010000293000086D2D000829300008812D0008D5
:1001100029300008A52D00082930000829300008E2
:10012000293000082930000829300008293000084B
:1001300029300008F12D000829300008B92D0008E9
:100140002930000829300008CD2D0008293000088A
:10015000293000082930000829300008293000081B
:1001600010B5054C237833B9044B13B10448AFF3F1
:1001700000800123237010BD9006002000000000C5
:10018000E8AB030808B5034B1BB103490348AFF3C1
:10019000008008BD0000000094060020E8AB0308C2
:1001A00010B488420DD98B1898420AD2811832B106
:1001B0009A1A13F8014D9A4201F8014DF9D110BC79
:1001C0007047002AFBD00A44431E11F8014B8A42B3
:1001D00003F8014FF9D110BC704770B4840746D0C2
:1001E0004C1E002941D0D5B2034602E0611EE4B3A3
:1001F0000C4603F8015B9907F8D1032C2ED9D5B230
:1002000045EA05250F2C45EA054519D9264603F18F
:100210001001103E0F2E41F8105C41F80C5C41F8C3
:10022000085C41F8045C01F11001F2D8A4F110015E
:1002300021F00F0104F00F041031032C0B440DD9F1
:100240001E4621460439032946F8045BFAD8211FCB
:1002500021F0030104310B4404F003042CB1D2B2A9
:100260001C4403F8012BA342FBD170BC70470C4621
:100270000346C2E753B94AB9002908BF00281CBF8A
:100280004FF0FF314FF0FF3000F0B0B9ADF1080C86
:100290006DE904CE00F006F8DDF804E0DDE90223A4
:1002A00004B070472DE9F04F099D884604468E46FC
:1002B000002B4AD18A4217465FD9B2FA82F64EB174
:1002C000C6F1200301FA06FEB740B44020FA03F35A
:1002D00043EA0E0E4FEA17481FFA87FC230CBEFBB9
:1002E000F8F108FB11EE01FB0CF243EA0E439A42CF
:1002F00007D9FB1801F1FF3002D29A4200F2548173
:1003000001469B1AA2B2B3FBF8F008FB103300FBC6
:100310000CFC42EA034294450BD9BA1800F1FF33B2
:100320002CBF01240024944502D9002C00F03F8109
:10033000184640EA0140A2EB0C0200211DB1F24038
:100340000023C5E90023BDE8F08F8B4205D90DB12C
:10035000C5E9000100210846F5E7B3FA83F1002959
:100360004ED14345C0F01281824240F20F810846CF
:10037000002DE8D0C5E9004EE5E7002A00F0AC808A
:10038000B2FA82F6002E40F0BB808B1A4FEA124E72
:10039000BCB20121020C80B2B3FBFEFC0EFB1C338D
:1003A00042EA034304FB0CF29A420ED9FB180CF10B
:1003B000FF382CBF4FF001094FF000099A4203D9D2
:1003C000B9F1000F00F0EC80C4469B1AB3FBFEF8B5
:1003D0000EFB183304FB08F440EA034294420BD9A5
:1003E000BA1808F1FF332CBF01200020944202D933
:1003F000002800F0D1809846121B48EA0C409DE787
:10040000C1F120068B4008FA01F400FA01F922FA42
:1004100006F728FA06F88A401F4320FA06F3380C3C
:1004200023431FFA87FC1C0CB8FBF0FE00FB1E8860
:1004300044EA08440EFB0CF8A0450ED93C190EF115
:10044000FF3A2CBF4FF0010B4FF0000BA04503D932
:10045000BBF1000F00F0B880D646A4EB08041FFAE9
:1004600083F8B4FBF0F300FB134403FB0CFC48EAF5
:100470000444A4450ED93C1903F1FF302CBF4FF0C2
:1004800001084FF00008A44503D9B8F1000F00F0AF
:100490009F80034643EA0E40A4EB0C04A0FB02EC51
:1004A00064457346E04602D307D1F14505D2BEEB61
:1004B00002036CEB070C0138E0465DB1B9EB0302B7
:1004C00064EB080404FA06F622FA01F3CC401E435A
:1004D000C5E90064002136E7B1FBF2FC010C1446CB
:1004E00080B2964641EA08412026904640EA014300
:1004F0001046B1FBF2F1A3EB080341EA0C414BE7D4
:10050000B740C6F1200301FA06F221FA03F84FEAD8
:10051000174E20FA03F3BCB2B0401343020C190C7F
:1005200080B2B8FBFEF90EFB198841EA084109FBCD
:1005300004F8884551D9791809F1FF3C2CBF4FF0D8
:10054000010A4FF0000A884502D9BAF1000F31D0F4
:10055000A1EB0801B1FBFEF909FB04F80EFB191130
:100560009BB243EA0143434535D2FB1809F1FF3101
:100570002CBF4FF0010A4FF0000A4345BBD2BAF13D
:10058000000FB8D1A9F102013B44B4E7841A68EB2B
:10059000030201209646EBE63A44A8F102082BE755
:1005A000ACF1020C3B4410E702393B44A9E63A4463
:1005B0000238BEE6A7EB0808A9F1020C4144B1FBE2
:1005C000FEF909FB04F8C9E7AEF1020E3C4444E72A
:1005D000023B3C445EE749468DE7A1EB0801CC466F
:1005E000B1FBFEF909FB04F8B8E700BF704700BF94
:1005F00080B586B000AF78600B467B807B681B7847
:10060000FB73FB7B6B2B00F38380302BC0F22781C5
:10061000303B3B2B00F2238101A252F823F000BFB4
:100620004B080008190700085F0800085F08000869
:100630005F0800085F0800085F0800085F080008FE
:100640005F0800085F0800085F0800085F080008EE
:100650005F0800085F0800085F0800085F080008DE
:100660005F08000871070008BB0700088907000839
:100670005F0800085F0800085F0800085F080008BE
:100680005F0800085F0800085F0800085F080008AE
:100690005F0800085F0800085F0800085F0800089E
:1006A0005F0800085F0800085F0800082B080008C2
:1006B0005F0800085F080008CF0700085F0800080F
:1006C0005F0800085F0800085F0800085F0800086E
:1006D0005F0800085F0800085F0800085F0800085E
:1006E0005F0800085F0800085F0800085F0800084E
:1006F0005F0800085F0800085F0800085F0800083E
:100700005F0800085F0800085F0800083907000854
:10071000A52B00F0A680A2E07B88012B08D97B687E
:1007200001331B78612B03D1012000F0AFF89DE06D
:10073000092000F0ABF899E07B6801331B78672B48
:1007400003D14C49002000F0BBF87B6801331B78D3
:10075000722B03D14749042000F0B2F87B680133C3
:100760001B78622B7FD14349082000F0A9F87AE07A
:10077000414804F048FF414B00221A70404B0022D0
:100780001A7000F0B9F871E03B4804F0F3FE7B8882
:10079000012B0BD97B6801331B78622B06D1374BB9
:1007A00001221A70364B00221A705FE0334B002290
:1007B0001A70334B01221A7058E02F4804F0DAFE09
:1007C0002E4B01221A702E4B00221A704EE07B88AD
:1007D000012B4AD97B88013BFB82FB8A032B01D981
:1007E0000323FB827B68591CFA8A07F10803184629
:1007F00039F09DFDFB8A18333B44002203F8102C8E
:1008000007F10803184639F057FC38613B69002BA3
:1008100001DC01233B613B69632B01D963233B610D
:100820003B69DAB2174B1A7020E07B88012B08D99C
:100830007B6801331B78302B03D1134B00221A70D5
:1008400014E0114B01221A7010E00B4804F0DBFE9B
:100850000A4B00221A700A4B00221A7006E000BFF1
:1008600004E000BF02E000BF00E000BF00BF183797
:10087000BD4680BD04000020D0340020F2060020D8
:10088000F306002000000020F506002080B483B0AD
:1008900000AF0346FB71FB7903F01F03FB71FB798B
:1008A000054A064951F82330936100BF0C37BD4615
:1008B0005DF8047B704700BF000002422CCC0308A7
:1008C00080B582B000AF786039600021094808F037
:1008D00091FC0421074808F08DFC0821054808F028
:1008E00089FC7968034808F0A5FB00BF0837BD46BE
:1008F00080BD00BF2837002080B584B002AF09203A
:10090000FFF7C4FF01224FF40051144804F022FD08
:100910000221134804F036FD124B1B880A22009274
:10092000114A1249124807F011F90346FB710E4BA8
:100930001A88104B1A800F4B1B881A460E490F4815
:1009400039F042FC38603B689BB21A460B490C48B0
:1009500009F016FE00BF0837BD4680BD0004024204
:10096000000002421A000020F006002018000020BB
:100970005C350020AC06002000AC0308B006002067
:100980007437002080B500AF0A4B93F88930DBB292
:10099000012B0DD101224FF40051074804F0DAFC7D
:1009A000064B1B6800225A62044808F067FA00E010
:1009B00000BF80BD5C35002000040242DC36002010
:1009C00080B582B000AF78607B681B680F4A9342A5
:1009D00018D10F4808F0A6FA00224FF400510D4834
:1009E00004F0B8FC0C4B1B880C4A0D490D4807F06D
:1009F000E1FA0346002B05D001224FF400510548CF
:100A000004F0A8FC00BF0837BD4680BD002C0140A3
:100A1000DC360020000402421A000020F00600200C
:100A2000180000205C35002080B582B000AF7860EF
:100A3000074B1B78184600F0B1F9054B1B78184698
:100A4000FFF724FFFFF79EFF00BF0837BD4680BDBC
:100A50008024002080B586B000AF78607B681B687A
:100A60002B4A934250D12B4B1B88FB8202F090FB08
:100A70003861294B1B781846FB8A3A69194600F001
:100A8000A3F9264B1B780133DAB2244B1A70234B9F
:100A90001B781F2B38D9214B00221A70204B1B7852
:100AA0000133DAB21E4B1A701E4B1B78012B0DD18D
:100AB00064211D4800F06EFB0346FB81FB89002B7F
:100AC00004D0FB891946184800F032FB144B1B7800
:100AD000012B19D9124B00221A70144BD3F888300D
:100AE000202B07D1124B1B78DBB2012B02D100F077
:100AF000DFFA09E00F4B1B78DBB2012B04D1002198
:100B00004FF400701AF0B0FC00BF1837BD4680BD2E
:100B100000200046F00600207824002080240020D9
:100B200081240020F5060020842400207437002052
:100B3000F3060020F206002080B582B000AF786096
:100B40007B68C6220021184639F0ACFB7B68002286
:100B5000C3F8C8207B68002283F8CC207B68002281
:100B600083F8CD207B680022A3F8CE207B6800228A
:100B700083F8D0207B68002283F8D1207B68002294
:100B800083F8D2207B68002283F8D3207B68002280
:100B9000A3F8D4207B68002283F8E0207B68002241
:100BA000C3F8E4207B68002283F8E82000BF083700
:100BB000BD4680BD80B485B000AF78600B467B80B9
:100BC0007B6893F8CC30FB737B6893F8CD307B73F4
:100BD000294B1B78BB73BB7B002B01D10123BB735B
:100BE000BB7B632B01D96323BB737A7BBB7B9A42AC
:100BF00005D27B7B0133DAB27B6883F8CD207B683A
:100C0000D3F8C830F97B7A6832F811209A1A7B68D9
:100C1000C3F8C8207B68D3F8C8207B881A447B6857
:100C2000C3F8C820FA7B7B68798823F81210FB7B15
:100C30000133FB73FA7BBB7B9A4201D30023FB7326
:100C40007B68FA7B83F8CC207B6893F8CD303B73CC
:100C50003B7B002B01D17B8807E07B68D3F8C82061
:100C60003B7BB2FBF3F37B817B8918461437BD468F
:100C70005DF8047B704700BF0000002080B485B0A1
:100C800000AF0346FB800B46BB801346FB70BA885F
:100C9000FB88D31AFB60FB78FA6842FA03F39AB236
:100CA000FB881344FB80FB8818461437BD465DF86B
:100CB000047B704780B588B000AF03463960FB7194
:100CC0001A4B1B68002B2DD0FB793B723B68D3F885
:100CD000E430FB603B6893F8E030BB76BB7E052BCD
:100CE00001D90523BB760023FB7710E0FB7FFA7F59
:100CF000396868335B000B44D988131D5B002033CF
:100D00003B440A4623F8182CFB7F0133FB77BB7E5C
:100D1000FA7F9A42EAD3054B1B6807F10802104696
:100D2000984700E000BF2037BD4680BD7C240020EE
:100D300080B582B000AF0023FB710BE0FB79EC22A1
:100D400002FB03F30A4A13441846FFF7F5FEFB794A
:100D50000133FB71FB791F2BF0D9064B00221A706F
:100D6000054B00221A6000BF0837BD4680BD00BF9A
:100D7000F8060020782400207C24002080B483B072
:100D800000AF7860044A7B68136000BF0C37BD4633
:100D90005DF8047B704700BF7C24002080B483B0E2
:100DA00000AF0346FB71FB791F2B01D90023FB71B8
:100DB000044AFB79137000BF0C37BD465DF8047B15
:100DC000704700BF7824002080B586B000AF03468E
:100DD0003A60FB710B46BB80FB79FB75FB7D1F2BDB
:100DE00000F20881FB7DEC2202FB03F3854A1344E9
:100DF0003B61BB8819463869FFF7DCFE0346FB817F
:100E00003B69BA88A3F8D4203B6993F8D030002B13
:100E10000CD13B69B3F8CE30F98908221846FFF7A8
:100E20002DFF03461A463B69A3F8CE203B69B3F871
:100E3000CE303233BB813B69B3F8CE3019337B817E
:100E40003B6993F8D030022B00F09C80022B00F31A
:100E5000CC80002B02D0012B45D0C6E0FA89BB899B
:100E60009A423BD93B6993F8D130FF2B07D03B69BD
:100E700093F8D1300133DAB23B6983F8D1203B6972
:100E800093F8D130012B40F2B7803B69012283F8FF
:100E9000D0203B69002283F8D1203B69002283F8EF
:100EA000D2203B69002283F8E0203B693A68C3F80E
:100EB000E4203B6993F8E030042B00F29D803B690D
:100EC00093F8E0305A1CD1B23A6982F8E0103A69DE
:100ED00068335B001344FA89DA808DE03B690022B5
:100EE00083F8D12088E0FA89BB899A423DD93B69D1
:100EF00093F8D130FF2B07D03B6993F8D130013301
:100F0000DAB23B6983F8D1203B6993F8D130032BE7
:100F100074D93B69022283F8D0203B69002283F810
:100F2000D1203B69002283F8D2203B6993F8E83056
:100F30000133DAB23B6983F8E8203B6993F8E0308B
:100F4000042B0DD83B6993F8E0305A1CD1B23A69B2
:100F500082F8E0103A6968335B001344FA89DA805A
:100F60003B69012283F8D32048E03B69002283F8E3
:100F7000D0203B69002283F8D1203B69002283F80E
:100F8000E0203BE03B6993F8E030042B0DD83B694F
:100F900093F8E0305A1CD1B23A6982F8E0103A690D
:100FA00068335B001344FA89DA803B6993F8D330E5
:100FB000002B08D03B6993F8D330013BDAB23B6990
:100FC00083F8D3201BE03B69002283F8D0203B69E3
:100FD000002283F8D1203B69002283F8D220FB7DD8
:100FE00039691846FFF766FE09E03B69002283F87D
:100FF000D02004E000BF02E000BF00E000BF1837CF
:10100000BD4680BDF806002080B485B000AF786092
:101010000B467B807B68FB60FB685A1CFA60AA2247
:101020001A70FB685A1CFA6055221A700023FB7272
:1010300025E0FB7A1D4AEC2101FB03F31344D43372
:101040001B883B81FA7AFB68591CF9601749EC2030
:1010500000FB02F20A44E83212781A703B891B0A3C
:1010600099B2FB685A1CFA60CAB21A70FB685A1C23
:10107000FA603A89D2B21A70FB7A0133FB72FB7ABA
:101080001F2BD6D9FB685A1CFA600D221A70FB6818
:101090005A1CFA600A221A70FA687B68D31A9BB24B
:1010A00018461437BD465DF8047B7047F8060020EB
:1010B00080B582B000AF64210948FFF7A5FF034661
:1010C000FB80FB88002B06D0FB881A4604490548A4
:1010D00009F056FA00E000BF0837BD4680BD00BFEA
:1010E000842400207437002080B584B000AF78607D
:1010F0007B681B680B4A93420FD1786802F03CFB77
:10110000F860FB68012B08D107490420FFF7D8FBE2
:1011100000220121054804F01DF900BF1037BD462B
:1011200080BD00BF005400460400002000040242BD
:1011300080B582B000AF78600B467B807A88124B16
:101140001B681344B3F5004F02D30F4B00221A6003
:101150000D4B1B680D4A13447A887968184639F09C
:10116000E6F87A88084B1B681344074A1360064B5D
:101170001B68B3F5804F02D3054B01221A7000BFE4
:101180000837BD4680BD00BFACD90020AC59002057
:10119000F406002080B485B000AF78600B467B80F9
:1011A0007B68FB60FB685A1CFA60AA221A70FB6815
:1011B0005A1CFA6055221A700023FB7219E0FB7A60
:1011C000174AEC2101FB03F31344D4331B883B8102
:1011D0003B891B0A99B2FB685A1CFA60CAB21A70A2
:1011E000FB685A1CFA603A89D2B21A70FB7A013352
:1011F000FB72FB7A1F2BE2D9FB685A1CFA600D22A6
:101200001A70FB685A1CFA600A221A70FA687B6826
:10121000D31A9BB218461437BD465DF8047B70475D
:10122000F806002080B400AF064BD3F8F430054A2E
:1012300043F40003C2F8F43000BFBD465DF8047B00
:10124000704700BF000C024680B500AF00F052F8B6
:1012500000BF80BD80B582B000AF7860002019F07B
:1012600003FE00F061F800F079F816F067FD00F079
:10127000B1F800F079F800F089F800F09FF8174B0A
:101280001B884FF6FF72934211D0144B1B88002B22
:101290000BD0124B1B889B0223F4FF5323F01F0338
:1012A00003F1FF6303F5F82302E00D4B00E00C4B64
:1012B000184611F02BFD0346002B01D000F0D6FF9D
:1012C00016F05EFE0121022011F03CF8002019F01A
:1012D000D6FD002318460837BD4680BDA007F90B90
:1012E00000C00F0880B500AF4FF0FF3019F018FFB5
:1012F00000BF80BD80B582B000AF00237B603B1D86
:101300001946002015F03EFD0346002B03D00C20AB
:1013100005F070FD04E07B689B7B184605F06AFDD4
:1013200000BF0837BD4680BD80B500AFFFF77AFF2C
:101330001AF01EF9074804F0CDFB00F05DFE064BE5
:1013400093E8030013F022FF14F024FD15F000F8D9
:1013500000BF80BD400000301C00002080B500AF01
:1013600016F04AF900BF80BD80B500AF102010F024
:10137000ADFC10F061FC10F0A3FB034A002101203A
:101380001AF050F800BF80BDB11B010880B500AF56
:10139000094A00214FF480701AF044F8012101201D
:1013A00010F0D0FF0021022010F0CCFF002100201F
:1013B00010F0C8FF00BF80BDC126010880B500AF96
:1013C000034A002140201AF02DF800BF80BD00BF65
:1013D0003DA6010880B500AF074813F031FF034672
:1013E000002B01D000F042FF044A002120201AF017
:1013F00019F800BF80BD00BF340000205559010816
:1014000080B400AF00BFBD465DF8047B704780B478
:1014100000AF00BFBD465DF8047B704780B400AFED
:1014200000BFBD465DF8047B704780B500AF00216A
:1014300040201AF019F800BF80BD80B500AF002130
:1014400001201AF011F800BF80BD000080B483B005
:1014500000AF78607B68074A1A607B68064A5A606A
:101460007B68064A9A6000BF0C37BD465DF8047B76
:10147000704700BF91140008AF140008CB14000897
:1014800080B500AF0021202019F0EEFF00BF80BD25
:1014900080B582B000AF786039603B689B00194628
:1014A000786814F083FB00BF0837BD4680BD80B567
:1014B00082B000AF78607B689B00184614F0AAFAEF
:1014C000034618460837BD4680BD80B582B000AFE0
:1014D0007860786814F02EFB00BF0837BD4680BDE9
:1014E00080B500AF00214FF4807019F0BDFF00BF40
:1014F00080BD80B400AF00BFBD465DF8047B70477F
:1015000080B400AF00BFBD465DF8047B704780B477
:1015100083B000AF78600B467B8000BF0C37BD46C0
:101520005DF8047B7047000080B483B000AF786042
:10153000084B5B6823F480727B68DB4303F48073A1
:10154000044913434B6000BF0C37BD465DF8047B74
:10155000704700BF0008024680B400AF054B1B680F
:10156000044A43F00103136000BFBD465DF8047BED
:10157000704700BF0004034080B483B000AF7860C0
:10158000064B1B6823F0040204497B6813430B607D
:1015900000BF0C37BD465DF8047B70470004034074
:1015A000B0B483B000AF7860074A7B6814461D462C
:1015B0000FCD0FC42B682360044B01221A7000BFAB
:1015C0000C37BD46B0BC7047303900202C390020A4
:1015D00080B500AF394B1B78002B6CD1384804F034
:1015E00012F8384806F04CFF01224FF400513648FB
:1015F00003F0B0FE334B1B681A68324B1B6822F0B5
:1016000001021A602F4B0722DA602E4B4FF0E042A6
:10161000DA612C4B00225A632A4B0022DA632948F4
:1016200005F0B0FF274B1B681A68264B1B6842F079
:1016300001021A600122254925480DF0FBFD0346F1
:10164000002B0ED13222234923480DF03DFE0346E4
:10165000002B0AD1194B01221A70204B00221A606C
:1016600003E01F490420FFF72BF9164B1B681A688B
:10167000144B1B6822F001021A6000F0A1FB114B11
:101680001B689A690F4B1B6842F040029A61002266
:101690004FF400510C4803F05DFE124B1B78DBB297
:1016A000002B04D1104B1B78DBB2002B04D0044874
:1016B00003F060FF00E000BF80BD00BFA459002020
:1016C000D03400205C350020000402420CAC03083A
:1016D0004439002010AC03087C490020A8590020A0
:1016E00044000020F3060020F206002080B586B0FA
:1016F00000AF78603960474B1B78002B00F0858085
:10170000454803F080FF454806F0BAFE01224FF439
:101710000051434803F01EFE404B1B681A683F4BC4
:101720001B6822F001021A603C4B0722DA603B4B37
:101730004FF04052DA61394B00225A63374B002296
:10174000DA63364805F01EFF06E0344B1B68303381
:101750001B78DBB2FB73FB7B304B1B685B6903F0D0
:101760000103012BF1D02D4B1B681A682B4B1B6812
:1017700042F001021A6007F110033A6879682948BB
:101780000DF038FF0346FB75FB7D002B11D1264B76
:101790001A683B691344244A1360234B1B68B3F552
:1017A000803F0CD91F480EF0ADF81F4B00221A6085
:1017B00005E01C480EF025F9164B00221A70174B55
:1017C0001B681A68154B1B6822F001021A6000F0B2
:1017D000F7FA124B1B689A69104B1B6842F04002E3
:1017E0009A6100224FF400510D4803F0B3FD0F4BF6
:1017F0001B78DBB2002B04D10D4B1B78DBB2002B26
:1018000004D0054803F0B6FE00E000BF1837BD461F
:1018100080BD00BFA4590020D03400205C350020DA
:10182000000402427C490020A8590020F306002051
:10183000F206002080B500AF314B1B78002B5CD046
:10184000304803F0E0FE304806F01AFE01224FF463
:1018500000512E4803F07EFD2B4B1B681A682A4B63
:101860001B6822F001021A60274B0722DA60264B20
:101870004FF04052DA61244B00225A63224B00227F
:10188000DA63214805F07EFE1F4B1B681A681E4B69
:101890001B6842F001021A601D480EF0B2F80022E7
:1018A0001C4900200DF0C6FC154B00221A70164B87
:1018B0001B681A68144B1B6822F001021A6000F0C2
:1018C0007FFA114B1B689A690F4B1B6842F040026C
:1018D0009A6100224FF400510C4803F03BFD0E4B7F
:1018E0001B78DBB2002B04D10C4B1B78DBB2002B36
:1018F00004D0044803F03EFE00E000BF80BD00BFFE
:10190000A4590020D03400205C350020000402429D
:101910007C4900200CAC0308F3060020F2060020EE
:1019200080B500AF01F082FBFFF78EFC00F086F877
:1019300000F000F900F0AEFB00F046F900F0BCF951
:1019400000F0CEF900F078F900F0E2FA00F038FA91
:1019500000F00CF900F07EF900F09CFA0122012160
:101960002C4803F0F7FCFFF7E3F92B48FFF706FAE2
:101970002A490020FEF7A4FF352002F050F828483D
:1019800001F066FE322001F00FFC264B4FF40032CE
:10199000DA60244B4FF400321A61352002F07EF8F1
:1019A000352002F02EF801224FF40051194803F0BF
:1019B000D1FC0020FFF74EFCFFF794FC1A4B1B787C
:1019C000012B06D1194B1B78002B02D1FFF700FE2B
:1019D00009E0154B1B78002B05D1144B1B78012B0C
:1019E00001D1FFF727FF124B1B78DBB2002BE3D0AE
:1019F0000F4B00221A700D4B1B78002B05D00D4B9E
:101A00001B6819460C48FFF771FE0A4B00221A604A
:101A1000D2E700BF00040242A115000844000020E4
:101A2000A034002000200246F5060020A459002022
:101A3000F4060020ACD90020AC59002080B598B045
:101A400000AF07F1200340220021184638F02AFC9D
:101A50003B4620220021184638F024FC022004F0E6
:101A6000D5F84FF4803004F073F80346002B01D012
:101A700000F0FCFB04F01EF82D4BD3F8F03023F0FF
:101A800018032B4A43F00803C2F8F03007233B62E7
:101A90004FF480337B620023BB628123FB624FF4EF
:101AA00080733B6310237B6302233B6403237B64CB
:101AB0000223BB640C23FB6402233B6502237B658A
:101AC0000223BB650023FB6507F12003184604F0E1
:101AD00033F90346002B01D000F0C8FB3F233B60E5
:101AE00003237B600023BB600023FB6040233B613A
:101AF00000237B610523BB610023FB613B46022180
:101B0000184604F029FD0346002B01D000F0AEFB7F
:101B1000022001F0D1FF0E2001F0A8FA0346002BAD
:101B200001D000F0A3FB00BF6037BD4680BD00BF01
:101B3000000C024680B592B000AF3B46482200211F
:101B4000184638F0AFFB4FF400433B604FF480235E
:101B50007B643B46184604F041FF0346002B01D04E
:101B600000F084FB00BF4837BD4680BD80B500AFA4
:101B7000134B144A1A60124B00221A61104B202298
:101B80005A610F4B0022DA610D4B00229A600C4B18
:101B900000229A610A4B00221A62094B0022DA6085
:101BA000074B00225A60064B31225A62044801F06A
:101BB0000BFC0346002B01D000F058FB00BF80BD9A
:101BC000A03400200054004680B582B000AF194B0D
:101BD000D3F88830174A43F00103C2F88830154B18
:101BE000D3F8883003F001037B607B680022062174
:101BF0001D2001F0E9FE1D2001F003FF0022052158
:101C00001E2001F0E1FE1E2001F0FBFE002200215B
:101C1000202001F0D9FE202001F0F3FE0022002157
:101C2000212001F0D1FE212001F0EBFE00BF08379A
:101C3000BD4680BD000C024680B500AF4FF48070F9
:101C4000FFF772FC0020FFF797FCFFF785FC00BF51
:101C500080BD000080B500AF154B164A1A60144BCA
:101C600000225A60124B4FF400729A60104B4FF6EC
:101C7000FF725A610E4B42F6DF621A620C4B002271
:101C80005A620B4B00229A62094B0022DA62084B1F
:101C900000221A63064B00225A63054803F08CFBAE
:101CA0000346002B01D000F0E1FA00BF80BD00BF69
:101CB000D03400200044004680B500AF064B074AF0
:101CC0001A60054803F0EEFF0346002B01D000F038
:101CD000CDFA00BF80BD00BF20350020006002406B
:101CE00080B594B000AF07F1340300221A605A6047
:101CF0009A60DA601A615A619A613B1D30220021B4
:101D0000184638F0CFFA2C4B2C4A1A602A4B1F2267
:101D10009A60294B00221A61274B00225A61264BF8
:101D200000229A61244B4FF08042DA61224B00225C
:101D30001A62214B4FF480725A621F4805F096F8E0
:101D40000346002B01D000F091FA00237B630023AF
:101D50003B6400237B640023BB6407F13403194612
:101D6000154805F0E1FB0346002B01D000F07EFA98
:101D7000114805F05DFB0346002B01D000F076FA18
:101D800000233B620023BB600023BB614FF07C5308
:101D9000FB614FF480733B633B1D012219460648EB
:101DA00005F0E6F80346002B01D000F05FFA00BF13
:101DB0005037BD4680BD00BF2C350020007800465E
:101DC00080B584B000AF3B1D00221A605A609A6053
:101DD0002E4B2F4A1A602D4B4FF480025A602B4B2A
:101DE00000229A60294B0F22DA60284B00221A61E8
:101DF000264B00225A61254B4FF080629A61234B9B
:101E00004FF00052DA61214B00221A621F4B002270
:101E10005A621E4B00229A621C4B0722DA621B4B4D
:101E200000225A63194B00229A63184B0022DA638E
:101E3000164B00229A64154B0022DA64134B0022E1
:101E40001A65124B00225A65104B00229A650F4BFF
:101E50000022DA650D4B00221A660C4805F092FB51
:101E60000346002B01D000F001FA00237B603B1DEC
:101E70001946064806F0C1FF0346002B01D000F0CA
:101E8000F5F900BF1037BD4680BD00BF5C350020AE
:101E90000020004680B584B000AF3B1D00221A60D0
:101EA0005A609A60184B194A1A60174B20225A60E0
:101EB000154B00229A60144B2322DA60124B002249
:101EC0001A61114B00225A610F4B00229A610821BE
:101ED0000D4807F003FB0346002B01D000F0C6F9C4
:101EE00000237B600023BB600023FB603B1D194681
:101EF000054808F00BF90346002B01D000F0B6F9B5
:101F000000BF1037BD4680BDDC360020002C0140EC
:101F100080B58AB000AF07F11C0300221A605A6036
:101F20009A603B4600221A605A609A60DA601A6131
:101F30005A619A612E4B2F4A1A602D4B00225A602B
:101F40002B4B00229A602A4B4FF6FF72DA60284B27
:101F500000221A61264B00229A61254807F012F8E8
:101F60000346002B01D000F081F90023FB61002320
:101F70007B6207F11C0319461D4808F0C7F80346A9
:101F8000002B01D000F072F960233B6043F2C823BC
:101F90007B600023BB6000233B613B460022194667
:101FA000134807F03BFC0346002B01D000F05EF91C
:101FB00000237B603B46042219460D4807F02EFCA7
:101FC0000346002B01D000F051F93B460822194688
:101FD000074807F023FC0346002B01D000F046F928
:101FE000034800F003FC00BF2837BD4680BD00BF9A
:101FF000283700200004004080B500AF234B244A5E
:102000001A60224B4FF4E1325A60204B00229A6052
:102010001E4B0022DA601D4B00221A611B4B0C2262
:102020005A611A4B00229A61184B4FF40042DA6150
:10203000164B00221A62154B00225A62134B0022E3
:102040009A62124808F010F90346002B01D000F004
:102050000DF900210D480AF05EFD0346002B01D06A
:1020600000F004F9002109480AF093FD0346002B13
:1020700001D000F0FBF805480AF012FD0346002BE2
:1020800001D000F0F3F800BF80BD00BF743700201E
:102090000038014080B588B000AF07F10C03002282
:1020A0001A605A609A60DA601A616C4BD3F88C300F
:1020B0006A4A43F00103C2F88C30684BD3F88C3085
:1020C00003F00103BB60BB68644BD3F88C30634AF8
:1020D00043F00203C2F88C30604BD3F88C3003F02D
:1020E00002037B607B685D4BD3F88C305B4A43F026
:1020F0000403C2F88C30594BD3F88C3003F004033E
:102100003B603B68002242F2A701554803F022F9E8
:1021100001224FF40061524803F01CF9002240F6FE
:10212000FA01504803F016F942F20103FB60012363
:102130003B6100237B610023BB6107F10C0319465F
:10214000474802F0F5FE40F60403FB6001233B61C3
:1021500001237B610023BB6107F10C031946404852
:1021600002F0E6FEDA23FB6001233B6100237B6182
:102170000023BB6107F10C0319463A4802F0D8FE70
:102180004FF40263FB6001233B6102237B61002368
:10219000BB6107F10C031946324802F0C9FE4FF447
:1021A0000053FB6000233B6100237B6107F10C03BC
:1021B00019462D4802F0BCFE4023FB6003233B611F
:1021C00002237B6107F10C031946254802F0B0FE9B
:1021D000A223FB6001233B6102237B610023BB61DF
:1021E00007F10C0319461E4802F0A2FE4FF400430B
:1021F000FB6000233B6102237B6107F10C0319465E
:10220000184802F095FE1023FB6003233B61002376
:102210007B6107F10C031946114802F089FE4FF467
:102220008053FB6003233B6100237B6107F10C03B8
:1022300019460C4802F07CFE4FF40043FB6000237B
:102240003B6100237B6107F10C031946044802F04F
:102250006FFE00BF2037BD4680BD00BF000C0246A8
:1022600000040242000002420008024280B400AFB3
:1022700072B600BF00BFFDE780B582B000AF114B62
:10228000D3F894300F4A43F00403C2F894300D4B56
:10229000D3F8943003F004037B607B6800220121B3
:1022A000092001F091FB092001F0ABFB0022052180
:1022B000422001F089FB422001F0A3FB00BF083758
:1022C000BD4680BD000C024680B58AB000AF786084
:1022D00007F1140300221A605A609A60DA601A61EA
:1022E0007B681B681C4A934231D11C4BD3F8A83041
:1022F0001A4A43F40043C2F8A830184BD3F8A83068
:1023000003F400433B613B69144BD3F88C30134A10
:1023100043F00103C2F88C30104BD3F88C3003F03B
:102320000103FB60FB6804237B610323BB61002383
:10233000FB6107F114031946094802F0F9FD002278
:102340000021352001F040FB352001F05AFB00BF91
:102350002837BD4680BD00BF00540046000C024631
:102360000000024280B485B000AF78607B681B68D3
:102370000B4A93420ED10B4BD3F88830094A43F4F1
:102380008053C2F88830074BD3F8883003F4805369
:10239000FB60FB6800BF1437BD465DF8047B7047E7
:1023A00000300240000C024680B483B000AF786079
:1023B0007B681B68084A934207D1084BD3F88830E2
:1023C000064A23F48053C2F8883000BF0C37BD465C
:1023D0005DF8047B704700BF00300240000C0246ED
:1023E00080B596B000AF786007F110034822002155
:1023F000184637F057FF7B681B68164A934225D171
:102400004FF480533B610023BB6407F1100318466F
:1024100004F0E4FA0346002B01D0FFF727FF0E4B30
:10242000D3F8A8300C4A43F40063C2F8A8300A4B32
:10243000D3F8A83003F40063FB60FB68002200219E
:10244000312001F0C1FA312001F0DBFA00BF58372A
:10245000BD4680BD00440046000C024680B485B0F5
:1024600000AF78600A4BD3F88830094A43F4003350
:10247000C2F88830064BD3F8883003F40033FB6091
:10248000FB6800BF1437BD465DF8047B704700BF92
:10249000000C024680B596B000AF786007F11003DB
:1024A00048220021184637F0FDFE7B681B68174A5A
:1024B000934226D14FF480433B614FF480733B65D8
:1024C00007F11003184604F089FA0346002B01D0E7
:1024D000FFF7CCFE0E4BD3F8A8300D4A43F400139F
:1024E000C2F8A8300A4BD3F8A83003F40013FB60FD
:1024F000FB6800220421022001F066FA022001F0AC
:1025000080FA00BF5837BD4680BD00BF0078004646
:10251000000C024680B59CB000AF786007F15C0308
:1025200000221A605A609A60DA601A6107F1140397
:1025300048220021184637F0B5FE7B681B687A4AAE
:10254000934240F0ED804FF480637B6108237B640D
:1025500007F11403184604F041FA0346002B01D09A
:10256000FFF784FE714BD3F8A830704A43F0200384
:10257000C2F8A8306D4BD3F8A83003F020033B61BC
:102580003B696A4BD3F88C30684A43F00103C2F8C8
:102590008C30664BD3F88C3003F00103FB60FB6892
:1025A000624BD3F88C30614A43F00203C2F88C309E
:1025B0005E4BD3F88C3003F00203BB60BB68012391
:1025C000FB6502233B6600237B660023BB66062374
:1025D000FB6607F15C031946554802F0A9FC4FF46D
:1025E0004073FB6502233B6600237B660023BB66CA
:1025F0000623FB6607F15C0319464E4802F098FC7F
:102600004D4B4E4A1A604C4B04225A604A4B0022F2
:102610009A60494B4FF48062DA60474B08221A6196
:10262000454B00225A61444B01229A61424B4FF4C0
:102630008032DA61404B00221A623F4B01225A621B
:102640003D4B01229A623C4B0022DA623A4B002257
:102650001A63394B00225A63374801F0FFFC0346E6
:10266000002B01D0FFF702FE7B68334AC3F88020BD
:10267000314A7B68D36510212F4802F08AF803465F
:10268000002B01D0FFF7F2FD2D4B2E4A1A602C4B88
:1026900003225A602A4B00229A60294B0022DA60FA
:1026A000274B00221A61264B4FF400225A61244B1B
:1026B00001229A61224B4FF48032DA61204B0022D2
:1026C0001A621F4B01225A621D4B01229A621C4B57
:1026D0000022DA621A4B00221A63194B00225A6355
:1026E000174801F0BBFC0346002B01D0FFF7BEFDED
:1026F0007B68134AC3F88420114A7B68D365102194
:102700000F4802F046F80346002B01D0FFF7AEFD5C
:10271000002200213F2001F057F93F2001F071F91C
:1027200000BF7037BD4680BD00200046000C024649
:102730000000024200040242EC3500205002024038
:1027400064360020D001024080B584B000AF7860CC
:102750007B681B68124A93421ED1124BD3F8A430F7
:10276000104A43F40063C2F8A4300E4BD3F8A430EF
:1027700003F40063FB60FB6800220021252001F0C8
:1027800023F9252001F03DF900220021262001F047
:102790001BF9262001F035F900BF1037BD4680BD7A
:1027A000002C0140000C024680B485B000AF786078
:1027B0007B681B680B4A93420ED10B4BD3F89C30BD
:1027C000094A43F00203C2F89C30074BD3F89C300F
:1027D00003F00203FB60FB6800BF1437BD465DF8E1
:1027E000047B704700040040000C024680B58AB0AC
:1027F00000AF786007F1140300221A605A609A60F3
:10280000DA601A617B681B68234A93423FD1234BED
:10281000D3F88C30214A43F00103C2F88C301F4BAF
:10282000D3F88C3003F001033B613B691B4BD3F8B9
:102830008C301A4A43F00203C2F88C30174BD3F89D
:102840008C3003F00203FB60FB684FF4C0637B61D4
:102850000223BB610023FB6100233B6202237B62F6
:1028600007F1140319460E4802F062FB4FF480434F
:102870007B610223BB610023FB6100233B620223D7
:102880007B6207F114031946064802F051FB00BFB2
:102890002837BD4680BD00BF00040040000C024642
:1028A000000002420004024280B59CB000AF786094
:1028B00007F15C0300221A605A609A60DA601A61BC
:1028C00007F1140348220021184637F0EBFC7B681F
:1028D0001B68794A934240F0EA8001237B6102231E
:1028E000BB6107F11403184604F078F80346002B87
:1028F00001D0FFF7BBFC714BD3F8A4306F4A43F40F
:102900008043C2F8A4306D4BD3F8A43003F4804365
:102910003B613B69694BD3F88C30684A43F0020352
:10292000C2F88C30654BD3F88C3003F00203FB60A7
:10293000FB68624BD3F88C30604A43F00103C2F865
:102940008C305E4BD3F88C3003F00103BB60BB6866
:102950004FF48053FB6502233B6600237B66002314
:10296000BB660723FB6607F15C031946544802F077
:10297000DFFA4FF48073FB6502233B6600237B661E
:102980000023BB660723FB6607F15C0319464D482D
:1029900002F0CEFA4C4B4D4A1A604B4B0B225A6058
:1029A000494B00229A60484B0022DA60464B0022D5
:1029B0001A61454B4FF400225A61434B00229A6141
:1029C000414B0022DA61404B00221A623E4B012249
:1029D0005A623D4B01229A623B4B0022DA623A4B2B
:1029E00000221A63384B00225A63374801F036FB45
:1029F0000346002B01D0FFF739FC7B68324AC3F84D
:102A00008020314A7B68D36510212F4801F0C1FE38
:102A10000346002B01D0FFF729FC2D4B2D4A1A60ED
:102A20002B4B0C225A602A4B00229A60284B4FF401
:102A30008062DA60264B08221A61254B00225A6117
:102A4000234B00229A61224B0022DA61204B0022A4
:102A50001A621F4B01225A621D4B01229A621C4BC3
:102A60000022DA621A4B00221A63194B00225A63C1
:102A7000174801F0F3FA0346002B01D0FFF7F6FBED
:102A80007B68134ADA67124A7B68D36510211048C5
:102A900001F07FFE0346002B01D0FFF7E7FB002289
:102AA00007212E2000F090FF2E2000F0AAFF00BF8B
:102AB0007037BD4680BD00BF00380140000C0246A3
:102AC00000040242000002423C380020D0000240D4
:102AD000B43800205000024080B582B000AF78606A
:102AE0007B681B68134A93421FD1134BD3F8A43061
:102AF000114A23F48043C2F8A4304FF480510F48A8
:102B000002F06CFB4FF480710D4802F067FB7B68AC
:102B1000D3F88030184601F035FB7B68DB6F184630
:102B200001F030FB2E2000F07AFF00BF0837BD46D1
:102B300080BD00BF00380140000C02460004024284
:102B40000000024280B483B000AF0346FB7197F9E6
:102B50000730002B0BDBFB7903F01F02074997F9C5
:102B600007305B09012000FA02F241F8232000BF80
:102B70000C37BD465DF8047B704700BF00E100E004
:102B800080B483B000AF0346FB7197F90730002B88
:102B900012DBFB7903F01F020A4997F907305B0942
:102BA000012000FA02F2203341F82320BFF34F8FB7
:102BB00000BFBFF36F8F00BF00BF0C37BD465DF88D
:102BC000047B704700E100E080B400AF064BD3F80F
:102BD0000832054A23F48033C2F8083200BFBD46EC
:102BE0005DF8047B704700BF000C024680B483B0E0
:102BF00000AF78607B686FF001021A6100BF0C378C
:102C0000BD465DF8047B704780B483B000AF786048
:102C10007B681B6903F00103012B01D1012300E054
:102C2000002318460C37BD465DF8047B704780B41E
:102C300000AF00BFFDE780B400AF00BFFDE780B488
:102C400000AF00BFFDE780B400AF00BFFDE780B478
:102C500000AF00BFFDE780B400AF00BFBD465DF828
:102C6000047B704780B400AF00BFBD465DF8047BB5
:102C7000704780B400AF00BFBD465DF8047B70476D
:102C800080B500AF00F070FA00BF80BD80B500AF26
:102C9000034804F0AFFA024804F0F4FB00BF80BD23
:102CA0002C35002080B500AF0C4B5B6D03F010039A
:102CB000102B05D1094B10229A6514F02DFF0AE064
:102CC000064B5B6D03F04003402B04D1034B4022C5
:102CD0009A6514F09DFE00BF80BD00BF000C024647
:102CE00080B500AF024801F0E7FB00BF80BD00BF28
:102CF000B438002080B500AF024801F0DDFB00BF12
:102D000080BD00BF3C38002080B500AF024801F014
:102D1000D3FB00BF80BD00BF6436002080B500AF8C
:102D2000024801F0C9FB00BF80BD00BFEC350020A8
:102D300080B500AF024806F021FC00BF80BD00BF97
:102D4000DC36002080B500AF024806F017FC00BF5B
:102D500080BD00BFDC36002080B500AF024807F020
:102D6000D7FC00BF80BD00BF7437002080B500AF26
:102D7000024802F0A4FC00BF80BD00BFD034002098
:102D800080B500AF0648FFF73FFF0346012B04D193
:102D90000348FFF72BFF14F0EDFE00BF80BD00BF1E
:102DA0000044014080B500AF024800F09BFC00BF2A
:102DB00080BD00BFA034002080B500AF024805F000
:102DC00055FC00BF80BD00BF5C35002080B500AF62
:102DD000064B1B68002B02D0044B1B689847FFF77B
:102DE000F3FEBFF36F8F00BF00BF80BD701E0120D8
:102DF00080B500AF3D20FFF7C3FE0C4B1B68002BD6
:102E000002D00A4B1B689847094B1B78DBB2002B9A
:102E100007D0002205213D2000F0D6FD044B002202
:102E20001A703D20FFF78EFE00BF80BD741E01208A
:102E3000901E012080B586B000AF7860144A154B13
:102E4000D31A7B617B693B61134B1B68002B02D15A
:102E5000114B124A1A60104B1A687B6813443A6986
:102E60009A4207D237F034FA03460C221A604FF028
:102E7000FF3309E0084B1B68FB60074B1A687B684F
:102E80001344054A1360FB6818461837BD4680BDD9
:102E90000000022000100000B0D9002028670120A7
:102EA00080B400AF074BD3F88830064A43F4700370
:102EB000C2F88830034B044A9A6000BFBD465DF8F3
:102EC000047B704700ED00E00000000880B489B08A
:102ED00000AF4F4BDB6903F00C03082B02D00C2B27
:102EE0000BD07DE04A4B1B681B0D03F00103494AE0
:102EF00022FA03F3484A136076E0454B9B6AFB6174
:102F0000434B5B6B7B61FB691B0A03F007030133D7
:102F10003B617B69C3F308030133FB607B691B0ED4
:102F200003F07F030133BB60FB6903F01003002B48
:102F30000BD0374B9B6BDB08C3F30C0307EE903AC7
:102F4000F8EE677AC7ED067A02E04FF00003BB6146
:102F5000FB6903F003037B607B68022B03D07B6873
:102F6000032B03D00CE02D4BFB610CE0284B1B68BE
:102F70001B0D03F00103274A22FA03F3FB6102E071
:102F80000023FB6100BFFB6907EE903AF8EE676A29
:102F90003B6907EE903AF8EE677A86EEA77AFB680F
:102FA00007EE903AF8EE676A97ED066ADFED1C5A75
:102FB000C6EE257A76EEA77A67EE277AC7ED007A15
:102FC000BB6807EE903AB8EE677AD7ED006AC6EEB6
:102FD000877AFCEEE77A17EE902A0F4B1A6003E02F
:102FE0000D4B0E4A1A6000BF094B1B6A03F0070322
:102FF0000C4AD35CFB61084B1A68FB6922FA03F3A5
:10300000054A136000BF2437BD465DF8047B704756
:10301000000C02460048E801580000200024F4009B
:1030200000000046ACCC0308FEE7000080B500AF0E
:103030000D4B1B680C4A43F480731360032000F0AF
:10304000B8FCFFF743FF042000F036FD0E2000F02F
:103050000DF80346002B01D0012302E0FFF70CF925
:103060000023184680BD00BF0020024080B584B018
:1030700000AF78600023FB60364B1B78002B01D13A
:10308000012362E0344B1B6803F00403042B0CD1D2
:10309000324B1A682F4B1B7819464FF47A73B3FBE7
:1030A000F1F3B2FBF3F3FB603DE02D4BD3F8E030DE
:1030B00003F44003BB60BB68B3F5000F25D0BB68C9
:1030C000B3F5000F2ED8BB68002B04D0BB68B3F556
:1030D000800F0DD026E0214B1A681E4B1B78194635
:1030E0004FF4FA53B3FBF1F3B2FBF3F3FB601AE0D6
:1030F000184B1B781A464FF47A73B3FBF2F34FF474
:10310000FA42B2FBF3F3FB600DE0124B1B781A4658
:103110004FF47A73B3FBF2F34FF40042B2FBF3F3D4
:10312000FB6000E000BFF86800F088FC0346002B5D
:1031300001D0012309E0002279684FF0FF3000F050
:1031400043FC084A7B681360002318461037BD46CD
:1031500080BD00BF6000002010E000E058000020AB
:10316000000C02465C00002080B400AF064B1B78C8
:103170001A46064B1B681344044A136000BFBD4641
:103180005DF8047B704700BF60000020B4D90020C8
:1031900080B400AF034B1B681846BD465DF8047B46
:1031A000704700BFB4D9002080B584B000AF78600C
:1031B000FFF7EEFFB8607B68FB60FB68B3F1FF3F91
:1031C00005D00A4B1B781A46FB681344FB6000BF0E
:1031D000FFF7DEFF0246BB68D31AFA689A42F7D8B7
:1031E00000BF00BF1037BD4680BD00BF600000209B
:1031F00080B483B000AF7860064BD3F880200549D7
:103200007B681343C1F8803000BF0C37BD465DF8C2
:10321000047B70470020024680B483B000AF786022
:10322000074BD3F880207B68DB4305491340C1F886
:10323000803000BF0C37BD465DF8047B704700BF8F
:103240000020024680B483B000AF7860064BD3F80C
:10325000842005497B681343C1F8843000BF0C37D4
:10326000BD465DF8047B70470020024680B483B001
:1032700000AF7860074BD3F884207B68DB430549B7
:103280001340C1F8843000BF0C37BD465DF8047BA5
:10329000704700BF0020024680B483B000AF786062
:1032A000054B1A6804497B6813430B6000BF0C3759
:1032B000BD465DF8047B70470020024680B483B0B1
:1032C00000AF7860064B1A687B68DB430449134003
:1032D0000B6000BF0C37BD465DF8047B704700BF34
:1032E0000020024680B483B000AF7860054B5A6876
:1032F00004497B6813434B6000BF0C37BD465DF843
:10330000047B70470020024680B483B000AF786031
:10331000064B5A687B68DB43044913404B6000BF8F
:103320000C37BD465DF8047B704700BF00200246A5
:1033300080B483B000AF7860074B1A697B68134094
:103340007A689A4201D1012300E0002318460C3725
:10335000BD465DF8047B70470020024680B483B010
:1033600000AF7860044A7B68136100BF0C37BD462C
:103370005DF8047B704700BF0020024680B483B034
:1033800000AF7860074BDA687B6813407A689A422E
:1033900001D1012300E0002318460C37BD465DF83B
:1033A000047B70470020024680B483B000AF786091
:1033B000044A7B68D36000BF0C37BD465DF8047BD0
:1033C000704700BF0020024680B588B000AF78602B
:1033D0000023FB600023FB777B68002B02D10123D5
:1033E000FB7727E17B681B681B6803F00043B3F1A0
:1033F000004F02D10123FB771CE17B6893F8293051
:10340000DBB2002B09D17B68002283F828207B687F
:103410000022DA627868FEF757FF7B681B681B683A
:1034200003F03003BB617B685A697B681B691A43F0
:103430007B681B6A1A437B689B691A437B68DB695C
:103440001A437B68DB6813437B617B681B681A68DF
:103450007B4B13407A68126879690B4313607B6871
:103460005B68B3F5006F0CD1764B1B68754A23F48B
:1034700000631360734B5B68724A43F400635360EC
:103480001DE07B685B68B3F5C05F0CD16D4B1B68BA
:103490006C4A43F4006313606A4B5B68694A23F427
:1034A000006353600BE0674B1B68664A23F40063BC
:1034B0001360644B5B68634A23F4006353607B686A
:1034C0009B68B3F5A04F14D0B3F5A04F2BD8012BB8
:1034D0001CD0B3F5804F26D15A4B1B68594A43F490
:1034E00080431360574B5B68564A23F48043536014
:1034F00026E0544B1B68534A23F480431360514B1E
:103500005B68504A43F48043536019E04D4B1B689D
:103510004C4A43F4804313604A4B5B68494A43F486
:10352000804353600CE0474B1B68464A23F48043BA
:103530001360444B5B68434A23F48043536000BFED
:103540007B681B681B6803F03003002B16D0BB6937
:10355000002B13D13C4B1B689B093C4AA2FB032365
:103560009B095A1C13469B0013449B00FB6002E01E
:10357000FB68013BFB60FB68002BF9D17B681B6893
:10358000304A934202D14FF4003301E04FF48023DC
:103590003B617B685B6A03F00303002B3AD07B68D6
:1035A0005B6A03F01003002B03D03869FFF774FE49
:1035B00002E03869FFF782FE7B685B6A03F0200354
:1035C000002B03D03869FFF78DFE02E03869FFF762
:1035D0009BFE3869FFF7E8FE3869FFF7BFFE7B689E
:1035E0005B6A03F00203002B03D03869FFF72AFE61
:1035F00002E03869FFF73AFE7B685B6A03F001037B
:10360000002B03D03869FFF7F3FD09E03869FFF7B5
:1036100003FE05E03869FFF729FE3869FFF7FCFD76
:103620007B6893F82930DBB2002B03D17B68012241
:1036300083F82920FB7F18462037BD4680BD00BF98
:103640000F7400FE0054004658000020632D3E0514
:1036500080B485B000AF78600023BB600023FB73AB
:103660007B68002B02D10123FB7330E07B681B6871
:103670001B6803F00043B3F1004F02D10123FB7339
:1036800025E07B6893F82930DBB2012B1DD17B68E4
:103690001B681A687B681B6842F001021A607B682D
:1036A000022283F829200D4B1B689B090C4AA2FBC0
:1036B00003239B090133DB00BB6002E0BB68013BD5
:1036C000BB60BB68002BF9D101E00123FB73FB7BDE
:1036D00018461437BD465DF8047B7047580000203B
:1036E000632D3E0580B584B000AF78607B681B68B1
:1036F000204A934202D14FF4003301E04FF480237B
:10370000FB601C4B1B6803F40063BB60194B5B68D8
:1037100003F40063BA681343BB60F868FFF72EFE3A
:103720000346002B0ED0BB68002B04D04FF4C02002
:10373000FFF73AFE02E0F868FFF736FE7868FDF71B
:10374000D3FC13E0F868FFF7F3FD0346002B0DD020
:10375000BB68002B04D04FF4C020FFF7FFFD02E050
:10376000F868FFF7FBFD7868FDF7BEFC00BF103777
:10377000BD4680BD0054004680B483B000AF786081
:103780007B681B681B689B0F03F0010318460C370E
:10379000BD465DF8047B704780B485B000AF7860AB
:1037A0007B6803F00703FB600C4BDB68BB60BA6807
:1037B0004FF6FF031340BB60FB681A02BB6813435C
:1037C00043F0BF6343F40033BB60044ABB68D3607B
:1037D00000BF1437BD465DF8047B704700ED00E084
:1037E00080B400AF044BDB681B0A03F007031846E4
:1037F000BD465DF8047B704700ED00E080B483B007
:1038000000AF0346FB7197F90730002B0BDBFB7908
:1038100003F01F02074997F907305B09012000FAFE
:1038200002F241F8232000BF0C37BD465DF8047B4F
:10383000704700BF00E100E080B483B000AF0346F2
:10384000FB7197F90730002B12DBFB7903F01F02A5
:103850000A4997F907305B09012000FA02F2203388
:1038600041F82320BFF34F8F00BFBFF36F8F00BF1E
:1038700000BF0C37BD465DF8047B704700E100E0F7
:1038800080B483B000AF0346FB7197F90730002B7B
:103890000CDBFB7903F01F02074997F907305B093E
:1038A000012000FA02F2403341F8232000BF0C3718
:1038B000BD465DF8047B704700E100E080B483B052
:1038C00000AF0346FB7197F90730002B0CDBFB7947
:1038D00003F01F02074997F907305B09012000FA3E
:1038E00002F2603341F8232000BF0C37BD465DF87B
:1038F000047B704700E100E080B483B000AF034672
:103900003960FB7197F90730002B0ADB3B68DAB2AC
:103910000C4997F907301201D2B20B4483F8002307
:103920000AE03B68DAB20849FB7903F00F03043B75
:103930001201D2B20B441A7600BF0C37BD465DF8B7
:10394000047B704700E100E000ED00E080B489B046
:1039500000AFF860B9607A60FB6803F00703FB61B1
:10396000FB69C3F10703042B28BF0423BB61FB6978
:103970000433062B02D9FB69033B00E000237B6183
:103980004FF0FF32BB6902FA03F3DA43BB681A4017
:103990007B699A404FF0FF317B6901FA03F3D94309
:1039A0007B680B40134318462437BD465DF8047B03
:1039B000704780B582B000AF78607868FFF7ECFEA2
:1039C00000BF0837BD4680BD80B586B000AF034656
:1039D000B9607A60FB73FFF703FF034603F0070348
:1039E0007B617A68B9687869FFF7B0FF024697F99A
:1039F0000F3011461846FFF77FFF00BF1837BD464E
:103A000080BD80B582B000AF0346FB7197F90730E7
:103A10001846FFF7F3FE00BF0837BD4680BD80B5EE
:103A200082B000AF0346FB7197F907301846FFF7E5
:103A300003FF00BF0837BD4680BD000080B483B0DF
:103A400000AF78607B68013BB3F1807F01D3012335
:103A50000DE00A4A7B68013B5360084B00229A60E4
:103A6000064B1B68054A43F0030313600023184606
:103A70000C37BD465DF8047B704700BF10E000E0E6
:103A800080B582B000AF0346FB7197F90730184646
:103A9000FFF7F6FE00BF0837BD4680BD80B582B097
:103AA00000AF0346FB7197F907301846FFF706FF92
:103AB00000BF0837BD4680BD80B483B000AF7860DA
:103AC0007B68042B44D801A252F823F0EF3A000897
:103AD0000D3B00082F3B0008513B0008E13A00086D
:103AE0001F4B1B681E4A43F00403136031E01C4B5C
:103AF0001B681B4A23F0040313601A4BD3F8E03011
:103B0000184A23F44003C2F8E03022E0144B1B684B
:103B1000134A23F004031360124BD3F8E03023F46C
:103B20004003104A43F48003C2F8E03011E00C4B2C
:103B30001B680B4A23F0040313600A4BD3F8E030F0
:103B400023F44003074A43F40003C2F8E03000E0E6
:103B500000BF00BF0C37BD465DF8047B704700BF57
:103B600010E000E0000C024680B582B000AF786043
:103B70007B68002B01D1012354E07B685B7FDBB2C3
:103B8000002B05D17B6800221A777868FEF7EAFBE4
:103B90007B6802225A777B681B79002B0CD17B68EB
:103BA0001B68224A5A617B681B689A687B681B689D
:103BB00022F018029A600CE07B6899687B68DB68E9
:103BC0001A46786800F0BCF90346002B01D00123A7
:103BD00028E07B685B79002B05D17B681B684FF080
:103BE000FF321A6104E07B681B687A6812691A6107
:103BF0007B681B689B6823F060017B685A697B685F
:103C00001B680A439A607B681B689B6823F08001ED
:103C10007B689A697B681B680A439A607B6801220B
:103C20005A77002318460837BD4680BDB71DC1042A
:103C300080B582B000AF78607B68002B01D1012392
:103C40001FE07B685B7FDBB2022B01D1022318E00F
:103C50007B6802225A777B681B689A687B681B68BE
:103C600042F001029A607B681B6800225A60786803
:103C7000FEF79AFB7B6800225A777B6800221A774E
:103C8000002318460837BD4680BD80B586B000AF1A
:103C9000F860B9607A6000233B61FB6802225A77C2
:103CA000FB681B6A032B06D0032B29D8012B19D0E4
:103CB000022B1ED024E000237B610AE07B699B007D
:103CC000BA681A44FB681B6812681A607B69013382
:103CD0007B617A697B689A42F0D3FB681B681B683A
:103CE0003B610EE07A68B968F86800F05EF8386108
:103CF00007E07A68B968F86800F0E7F8386100E032
:103D000000BFFB6801225A773B6918461837BD4649
:103D100080BD80B586B000AFF860B9607A600023DE
:103D20003B61FB6802225A77FB681B689A68FB6854
:103D30001B6842F001029A60FB681B6A032B06D0E5
:103D4000032B29D8012B19D0022B1ED024E00023ED
:103D50007B610AE07B699B00BA681A44FB681B68B8
:103D600012681A607B6901337B617A697B689A42C9
:103D7000F0D3FB681B681B683B610EE07A68B9688A
:103D8000F86800F012F8386107E07A68B968F868F6
:103D900000F09BF8386100E000BFFB6801225A7711
:103DA0003B6918461837BD4680BD80B489B000AF66
:103DB000F860B9607A600023FB6123E0FB699B0037
:103DC000BA6813441B781A06FB699B000133B96873
:103DD0000B441B781B041A43FB699B000233B96830
:103DE0000B441B781B021A43FB699B000333B96821
:103DF0000B441B781946FB681B680A431A60FB6971
:103E00000133FB617B689B08FA699A42D6D37B68D1
:103E100003F00303002B4FD07B6803F00303012B57
:103E200007D1FB699B00BA681344FA6812681B78D3
:103E300013707B6803F00303022B17D1FB699B000F
:103E4000BA6813441B781BB21B021AB2FB699B00B1
:103E50000133B9680B441B781BB213431BB27B833D
:103E6000FB681B687B617B697A8B1A807B6803F037
:103E70000303032B20D1FB699B00BA6813441B7812
:103E80001BB21B021AB2FB699B000133B9680B44D9
:103E90001B781BB213431BB27B83FB681B687B61DF
:103EA0007B697A8B1A80FB699B000233BA681344E2
:103EB000FA6812681B781370FB681B681B68184649
:103EC0002437BD465DF8047B704780B487B000AFEF
:103ED000F860B9607A6000237B6113E07B699B0026
:103EE000BA6813441B881A047B699B000233B968C3
:103EF0000B441B881946FB681B680A431A607B69E0
:103F000001337B617B685B087A699A42E6D37B6800
:103F100003F00103002B09D0FB681B683B617B6940
:103F20009B00BA6813441A883B691A80FB681B68B7
:103F30001B6818461C37BD465DF8047B70470000BF
:103F400080B487B000AFF860B9607A600023FB7579
:103F50001F233B61BB6803F00103002B02D1012347
:103F6000FB7563E000BF3B695A1E3A61002B09D024
:103F70003B6903F01F03BA6822FA03F303F001035D
:103F8000002BF0D07B68182B46D801A252F823F002
:103F90001F40000819400008194000081940000897
:103FA000194000081940000819400008194000088D
:103FB0000D40000819400008194000081940000889
:103FC000194000081940000819400008194000086D
:103FD0000140000819400008194000081940000875
:103FE000194000081940000819400008194000084D
:103FF000F53F00083B69062B13D90123FB7510E040
:104000003B69072B0FD90123FB750CE03B690F2B94
:104010000BD90123FB7508E00123FB7506E000BF07
:1040200004E000BF02E000BF00E000BFFB7D002B0A
:104030000DD1FB681B68BA685A61FB681B689B68F6
:1040400023F01801FB681B687A680A439A60FB7DBD
:1040500018461C37BD465DF8047B704780B584B0B8
:1040600000AF7860FFF794F8F8607B68002B01D10F
:10407000012372E07B681B683A4A934221D07B6837
:104080001B68394A93421CD07B681B68374A9342AD
:1040900017D07B681B68364A934212D07B681B6836
:1040A000344A93420DD07B681B68334A934208D050
:1040B0007B681B68314A934203D07B681B68304A97
:1040C00093427B68002283F84C207B6893F854303D
:1040D000DBB2002B0ED17B6800221A667B680022BF
:1040E0005A667B6800229A667B680022DA667B68E3
:1040F00000221A677B68022283F854207B681B68C1
:104100005A697B681B6842F006025A610FE0FFF7AC
:104110003FF80246FB68D31A052B08D97B681022AA
:104120009A657B68032283F85420012315E07B689D
:104130001B685B6903F00103002BE8D1786800F08D
:1041400089FB7B685A6B7B681A657B6800229A65DD
:104150007B68012283F85420002318461037BD469F
:1041600080BD00BF50000240D0000240500102401C
:10417000D001024050020240D002024050030240EF
:10418000D003024080B584B000AF7860FFF700F83C
:10419000F8607B68002B01D1012384E07B681B68F9
:1041A00023F47F6323F00F03BB607B681B685A69AD
:1041B0007B681B6842F006025A610FE0FEF7E8FFD9
:1041C0000246FB68D31A052B08D97B6810229A6532
:1041D0007B68032283F85420012364E07B681B681A
:1041E0005B6903F00103002BE8D17B681B680022A8
:1041F0001A607B681B6800225A617B681B6800227A
:104200001A647B681B6800225A647B681B68002262
:104210009A647B681B680022DA647B681B68002252
:104220001A657B681B680022DA67BB685A687B687E
:104230001B68C3F30B03503BDB0903F01F03012191
:1042400001FA03F3DB431A40BB685A607B681B68C2
:104250004FF4FE42DA607B6800221A667B68002217
:104260005A667B6800229A667B680022DA667B6861
:1042700000221A677B6800225A677B68DB6D002B7F
:1042800002D07B680022DA657B6800221A657B68B1
:1042900000229A657B68002283F854207B68002204
:1042A00083F84C20002318461037BD4680BD80B5EA
:1042B00084B000AFF860B9607A603B60FB68002BA7
:1042C00001D101234FE0FB6893F84C30012B01D161
:1042D000022348E0FB68012283F84C20FB6893F836
:1042E0005430DBB2012B36D1FB68022283F8542014
:1042F000FB6800229A653B687A68B968F86800F044
:1043000084FAFB681B685A69FB681B6842F4BA426E
:104310005A61FB685B6E002B07D0FB681B685A690B
:10432000FB681B6842F400725A61FB681B6F002B2C
:1043300007D0FB681B685A69FB681B6842F400528F
:104340005A61FB681B685A69FB681B6842F00102EE
:104350005A61002307E0FB6840229A65FB6800224F
:1043600083F84C20012318461037BD4680BD80B528
:1043700084B000AF7860FEF70BFFF8607B68002B1D
:1043800001D101236BE07B6893F85430DBB2022B40
:1043900008D07B6820229A657B68002283F84C2035
:1043A00001235CE07B681B685A697B681B6842F0EC
:1043B00004025A617B68052283F8542020E0FEF74E
:1043C000E7FE0246FB68D31A052B19D97B689B6D63
:1043D00043F010027B689A657B68032283F85420BF
:1043E0007B681B6D03F08003002B03D07B685B6F41
:1043F00001221A737B68002283F84C2001232EE0EF
:104400007B681B681B6903F40053002BD7D07B68C3
:104410001B685A697B681B6842F002025A617B681C
:10442000042283F854207B681B684FF4FE42DA6054
:104430007B68012283F854207B681B6D03F08003A6
:10444000002B07D07B685B6F01221A737B681B68A7
:1044500000229A647B68002283F84C2000231846CF
:104460001037BD4680BD80B483B000AF78607B68F4
:10447000002B01D1012319E07B6893F85430DBB2A3
:10448000022B04D07B6820229A6501230EE07B6812
:10449000042283F854207B681B685B697A68126881
:1044A00043F4005343F004035361002318460C37D0
:1044B000BD465DF8047B704780B586B000AF78607C
:1044C0007B681B6823F47F6323F00F037B617B68A9
:1044D0001B68C3F30B03503BDB0903F01F030122EE
:1044E00002FA03F33B617B69DB683A691340FB60C6
:1044F000FB68002B00F03B817B681B681B6903F4A1
:104500008063002B11D07B681B685B6903F48063B8
:10451000002B0AD07B681B684FF48062DA607B68EE
:104520009B6D43F001027B689A657B681B681B6981
:1045300003F40063002B11D07B681B685B6903F4F4
:104540000063002B0AD07B681B684FF40062DA60BE
:104550007B689B6D43F002027B689A657B681B68F1
:104560001B6903F48053002B11D07B681B685B69C7
:1045700003F48053002B0AD07B681B684FF48052F1
:10458000DA607B689B6D43F004027B689A657B6808
:104590001B681B6903F48043002B11D07B681B68E8
:1045A0005B6903F48043002B0AD07B681B684FF4DF
:1045B0008042DA607B689B6D43F008027B689A65F5
:1045C0007B681B681B6903F40073002B13D07B68A6
:1045D0001B685B6903F40073002B0CD07B681B68BD
:1045E0004FF40072DA607B685B6E002B03D07B684F
:1045F0005B6E786898477B681B681B6903F40053FF
:10460000002B4CD07B681B685B6903F40053002BC4
:1046100045D07B681B684FF40052DA607B6893F8E2
:104620005430DBB2042B2ED17B681B685A697B683F
:104630001B6822F400525A617B681B685A697B68C8
:104640001B6842F002025A617B68012283F8542001
:104650007B681B6D03F08003002B07D07B685B6FCA
:1046600001221A737B681B6800229A647B6800220F
:1046700083F84C207B68DB6E002B7AD07B68DB6E86
:104680007868984775E07B68052283F854207B683A
:104690001B6F002B03D07B681B6F786898477B6883
:1046A0001B681B6903F48073002B39D07B681B687F
:1046B0005B6903F48073002B32D07B681B6D03F0C1
:1046C0008003002B12D07B681B68DB6F002B16D198
:1046D0007B681B689B6C002B11D17B68012283F8DF
:1046E00054207B685B6F01221A7308E07B681B68AB
:1046F0009B6C002B03D17B68012283F854207B68DC
:104700001B684FF44072DA607B68002283F84C200B
:104710007B681B6E002B03D07B681B6E7868984704
:104720007B689B6D002B25D07B681B685A697B6872
:104730001B6842F002025A617B68012283F8542010
:104740007B681B6D03F08003002B03D07B685B6FDD
:1047500001221A737B68002283F84C207B689B6ED1
:10476000002B07D07B689B6E7868984702E000BFFB
:1047700000E000BF1837BD4680BD80B483B000AFF5
:1047800078607B689B6D18460C37BD465DF8047BEE
:10479000704780B485B000AF786039607B68002BCB
:1047A00001D101232BE07B681B6823F47F6323F096
:1047B0000F03FB607B681B68C3F30B03503BDB09F3
:1047C00003F01F03012202FA03F3BB603B6803F00E
:1047D0001003002B12D03B6803F01103112B06D1FC
:1047E000FB685A68BB681A43FB685A6006E0FB68BE
:1047F0005A68BB68DB431A40FB685A6000231846BE
:104800001437BD465DF8047B704780B485B000AFB7
:10481000F860B9607A603B60FB681B689B6C1B0C9E
:104820001B043A6891B2FA6812680B439364FB6800
:104830001B684FF4FE42DA60FB681B68BA68DA64F2
:10484000FB681B687A681A6500BF1437BD465DF8BF
:10485000047B704780B485B000AF78607B681B6ACA
:10486000FB607B681B685B6923F443017B681B6802
:10487000FA680A435A617B685A697B68DB691A43A4
:104880007B681B691A437B689B691343FB607B68E9
:104890001B68554A934222D07B681B68534A934257
:1048A0001DD07B681B68524A934218D07B681B68F6
:1048B000504A934213D07B681B684F4A93420ED0F4
:1048C0007B681B684D4A934209D07B681B684C4A41
:1048D000934204D07B681B684A4A934201D101236A
:1048E00000E00023002B12D07B68DA6A7B689B6AA9
:1048F000013B1B0503F07C731A437B685B6A013B39
:104900001B0103F47C731343FA681343FB607B6859
:104910001B681B6C03F080217B681B68FA680A43E4
:104920001A647B689A687B685B6803F03F031A43EC
:104930007B681B6B1343FB607B68DB68B3F5806FA0
:1049400031D17B681B68284A934222D07B681B6860
:10495000264A93421DD07B681B68254A934218D093
:104960007B681B68234A934213D07B681B68224AEA
:1049700093420ED07B681B68204A934209D07B6823
:104980001B681F4A934204D07B681B681D4A9342F0
:1049900001D1012300E00023002B0DD0FB6843F47C
:1049A0008063FB6008E07B68DB68B3F5007F03D1C0
:1049B000FB6843F40073FB607B681B685A6C124B06
:1049C00013407A681268F9680B4353647B681B686C
:1049D00000229A647B681B680022DA6700BF1437E4
:1049E000BD465DF8047B704750000240D000024095
:1049F00050010240D001024050020240D002024069
:104A000050030240D0030240C031E03C80B586B084
:104A100000AF78607B68002B03D07B685B6F002B56
:104A200001D1012382E07B6893F85430FB757B68E9
:104A30001B685B6903F480333B61FB7D012B05D070
:104A4000FB7D022B6AD13B69002B67D07B6893F812
:104A50005430DBB2012B57D17B6893F84C30012BDB
:104A600001D1022362E07B68012283F84C207B683D
:104A7000022283F854207B685B6F02221A737B68E2
:104A800000229A657B685B6F00221A617B681B6855
:104A90005A697B681B6842F4BA425A617B685B6E54
:104AA000002B07D07B681B685A697B681B6842F43F
:104AB00000725A617B681B6F002B07D07B681B68F4
:104AC0005A697B681B6842F400525A617B685B6FCD
:104AD0001B6807F10C010022184600F02BF87B68D8
:104AE0005B6F1B6819467B681A680B0C1B0413600C
:104AF0007B685B6F1B681A464FF6FC731340F968BE
:104B00007A6812680B43D3677B681B685A697B68B5
:104B10001B6842F001025A61002307E07B684022D3
:104B20009A657B68002283F84C20012318461837C9
:104B3000BD4680BD80B485B000AFF860B9607A60D2
:104B4000BB68002B02D0BB68064A1A607B68002B4A
:104B500002D07B6805221A6000BF1437BD465DF89D
:104B6000047B7047000001F880B586B000AFF860A4
:104B7000B9607A601F4B1B78012B01D1022334E00E
:104B80001C4B01221A701B4B00225A604FF47A70A2
:104B900000F070F80346FB75FB7D002B21D1154A10
:104BA000FB689360144B3B61FB6823F00043012BCF
:104BB00004D17968B86800F0A1F803E07968B868B2
:104BC00000F0D8F84FF47A7000F054F80346FB7503
:104BD0003B691A68FB6823F00043DB431A403B69DA
:104BE0001A60044B00221A70FB7D18461837BD4628
:104BF00080BD00BFB8D900202820024080B483B017
:104C000000AF0023FB710B4B9B6A002B0BDA094BA7
:104C1000094A9A60074B094A9A60064B9B6A002B27
:104C200001DA0123FB71FB7918460C37BD465DF8AC
:104C3000047B70470020024023016745AB89EFCD1C
:104C400080B483B000AF0123FB71094B9B6A084A13
:104C500043F000439362064B9B6A002B01DA00236A
:104C6000FB71FB7918460C37BD465DF8047B704735
:104C70000020024080B586B000AF7860FEF788FA69
:104C800078611C4B3B610DE07B68B3F1FF3F09D0BD
:104C9000FEF77EFA02467B69D31A7A689A4201D8F7
:104CA000032323E03B691B6803F44033002BEBD163
:104CB0003B691A6842F2FA031340FB60FB68002B61
:104CC0000AD00D4B5A68FB6813430B4A53603B698B
:104CD000FA681A60012309E03B691B6803F00103CD
:104CE000002B02D03B6901221A60002318461837B6
:104CF000BD4680BD20200240B8D9002080B48BB0D2
:104D000000AF78603960042387F827307B683B6206
:104D10003B68FB61164BBB61BB691B6843F001023A
:104D2000BB691A60EFF310833B613B697B6172B62C
:104D300000BFFB691A683B6A1A603B6A04333B6236
:104D4000FB690433FB6197F82730013B87F8273074
:104D500097F82730002BECD17B69FB60FB6883F36D
:104D6000108800BF00BF2C37BD465DF8047B70473C
:104D70002820024080B48BB000AF786039602023D7
:104D800087F827307B683B623B68FB61174BBB6150
:104D9000BB691B6843F4804343F00103BA691360A5
:104DA000EFF310833B613B697B6172B600BFFB6927
:104DB0001A683B6A1A603B6A04333B62FB6904333E
:104DC000FB6197F82730013B87F8273097F82730A9
:104DD000002BECD17B69FB60FB6883F3108800BF7C
:104DE00000BF2C37BD465DF8047B70472820024089
:104DF00080B586B000AF78603960314B1B78012BED
:104E000001D1022358E02E4B01221A702C4B0022B4
:104E10005A604FF47A70FFF72DFF0346FB75FB7D58
:104E2000002B45D17B681B68254A9360254BFB60AE
:104E30007B681B6823F00043042B08D100F044F882
:104E40004FF47A70FFF716FF0346FB7522E03B68CC
:104E50004FF0FF321A607B685B683B6112E0386993
:104E600000F048F84FF47A70FFF704FF0346FB7533
:104E7000FB7D002B03D03B683A691A600AE03B696E
:104E800001333B617B685A687B689B6813443A69CD
:104E90009A42E4D3FB681A687B681B6823F00043DE
:104EA00023F47E7343F47E73DB431A40FB681A607D
:104EB000034B00221A70FB7D18461837BD4680BD93
:104EC000B8D900202820024080B483B000AF084B3E
:104ED0007B607B681B6843F4803343F004037A688B
:104EE000136000BF0C37BD465DF8047B704700BF00
:104EF0002820024080B485B000AF78600B4BFB6087
:104F0000FB681B6823F4813323F4FD737A68D200B5
:104F1000134343F4803343F00203FA68136000BF85
:104F20001437BD465DF8047B704700BF282002405F
:104F300080B487B000AF7860396000237B613AE1CC
:104F40003B681A6801217B6901FA03F31340FB6097
:104F5000FB68002B00F02C813B685B6803F00303C7
:104F6000012B05D03B685B6803F00303022B30D1B3
:104F70007B689B683B617B695B00032202FA03F359
:104F8000DB433A6913403B613B68DA687B695B004D
:104F900002FA03F33A6913433B617B683A699A600A
:104FA0007B685B683B6101227B6902FA03F3DB43A8
:104FB0003A6913403B613B685B681B0903F00102DF
:104FC0007B6902FA03F33A6913433B617B683A69F0
:104FD0005A603B685B6803F00303032B09D13B680D
:104FE0005B6803F00303032B1BD13B689B68012B19
:104FF00017D07B68DB683B617B695B00032202FAA8
:1050000003F3DB433A6913403B613B689A687B6971
:105010005B0002FA03F33A6913433B617B683A6928
:10502000DA603B685B6803F00303022B23D17B69E2
:10503000DA087B68083253F822303B617B6903F061
:1050400007039B000F2202FA03F3DB433A69134084
:105050003B613B681A697B6903F007039B0002FA16
:1050600003F33A6913433B617B69DA087B680832D2
:10507000396943F822107B681B683B617B695B00E0
:10508000032202FA03F3DB433A6913403B613B68B6
:105090005B6803F003027B695B0002FA03F33A6981
:1050A00013433B617B683A691A603B685B6803F4B1
:1050B0004033002B7CD0474A7B699B08183352F859
:1050C00023303B617B6903F00303DB000F2202FA0C
:1050D00003F3DB433A6913403B617B689A0A3E4B1A
:1050E00013407A6902F00302D20093403A691343F5
:1050F0003B6138497B699B0818333A6941F82320A2
:10510000344B1B683B61FB68DB433A6913403B61EE
:105110003B685B6803F48013002B03D03A69FB689B
:1051200013433B612B4A3B6913602A4B5B683B612D
:10513000FB68DB433A6913403B613B685B6803F4FF
:105140000013002B03D03A69FB6813433B61214AEB
:105150003B6953601F4BD3F884303B61FB68DB43F2
:105160003A6913403B613B685B6803F40033002BF2
:1051700003D03A69FB6813433B61164A3B69C2F8A6
:105180008430144BD3F880303B61FB68DB433A69D1
:1051900013403B613B685B6803F48033002B03D012
:1051A0003A69FB6813433B610A4A3B69C2F88030A5
:1051B0007B6901337B613B681A687B6922FA03F3E0
:1051C000002B7FF4BDAE00BF00BF1C37BD465DF8AD
:1051D000047B7047002002467F7F2F0080B487B099
:1051E00000AF7860396000237B61A0E001227B6919
:1051F00002FA03F33A6813403B613B69002B00F06D
:105200009380524A7B699B08183352F82330FB6025
:105210007B6903F00303DB000F2202FA03F3FA6851
:105220001340FB607B689A0A494B13407A6902F08D
:105230000302D2009340FA689A4236D1434BD3F826
:1052400080203B69DB4341491340C1F880303F4B2C
:10525000D3F884203B69DB433C491340C1F88430D8
:105260003A4B5A683B69DB43384913404B60374B34
:105270001A683B69DB43354913400B607B6903F0D7
:105280000303DB000F2202FA03F3FB602F4A7B6962
:105290009B08183352F82310FB68DA432B487B69CC
:1052A0009B080A40183340F823207B681A687B6902
:1052B0005B00032101FA03F31A437B681A607B69E0
:1052C000DA087B68083253F822107B6903F0070381
:1052D0009B000F2202FA03F3DB437A69D2081940DC
:1052E0007B68083243F822107B689A687B695B0010
:1052F000032101FA03F3DB431A407B689A607B6861
:105300005A6801217B6901FA03F3DB431A407B6889
:105310005A607B68DA687B695B00032101FA03F35A
:10532000DB431A407B68DA607B6901337B613A6852
:105330007B6922FA03F3002B7FF458AF00BF00BF54
:105340001C37BD465DF8047B704700BF0020024655
:105350007F7F2F0080B483B000AF78600B467B80E6
:1053600013467B707B78002B03D07A887B689A6128
:1053700002E07A887B689A6200BF0C37BD465DF810
:10538000047B704780B485B000AF78600B467B80AB
:105390007B685B69FB607A88FB6813401A04FB68D2
:1053A000D9437B880B401A437B689A6100BF14374E
:1053B000BD465DF8047B704780B584B000AF78606F
:1053C0007B68002B01D10123CDE07B685B68012B5A
:1053D0007B6893F84A30DBB2002B06D17B68002251
:1053E00083F849207868FCF7FBFF7B68022283F88A
:1053F0004A207B681B681A697B681B6842F00102BF
:105400001A617B681B684FF480725A607B681B6866
:105410007A68526B9A624FF48071786800F01AFBD8
:105420000346032B01D103239DE07B681B681022F8
:105430005A607B681B687A68126A9A6110217868E2
:1054400000F008FB0346032B01D103238BE07B68AC
:105450001B68DB6A03F00203002B0ED17B681B681C
:10546000DB6A03F40033002B07D17B681B681A69E1
:105470007B681B6822F001021A617B681B68DB688D
:10548000FB607B685B68012B04D07B689B6AB3F58B
:10549000000F03D1FB6823F01E03FB607B685B6990
:1054A0004FF6FF72934205D0FB6823F4604323F06C
:1054B000C003FB60FA682E4B1340FB607B685A68A0
:1054C0007B689B681A437B685B6A1A437B689B6AAC
:1054D0001343FA681343FB607B685B68002B07D1BA
:1054E0007B68DA697B681B691343FA681343FB60C6
:1054F0007B685B68012B04D07B689B6AB3F5000F67
:1055000007D17B68DA687B681B691343FA68134329
:10551000FB607B685B694FF6FF7293420AD07B6841
:105520005A697B689B691A437B68DB691343FA6895
:105530001343FB607B681B68FA68DA607B68D96A92
:105540007B681A6B7B681B680A435A627B6801227E
:1055500083F84B207B68012283F84C207B68012272
:1055600083F84A20002318461037BD4680BD00BF8F
:10557000FEF139FF80B582B000AF78607B6802220F
:1055800083F84A207B685B68012B0CD07B689B6AA0
:10559000B3F5000F07D17B681B68DA687B681B686E
:1055A00022F46062DA607B681B681A697B681B689A
:1055B00042F001021A617B681B684FF080725A60EA
:1055C0007B681B689A687B681B6842F4C9729A60A2
:1055D0004FF08071786800F03DFA0346032B01D14B
:1055E00003230CE07B681B681A697B681B6842F028
:1055F00004021A617B68012283F84A2000231846BE
:105600000837BD4680BD80B582B000AF78607B684A
:10561000022283F84A207B681B68DB6A03F00203DE
:10562000002B0ED17B681B68DB6A03F40033002B70
:1056300007D17B681B681A697B681B6822F001022E
:105640001A617B681B681A697B681B6842F001025B
:105650001A617B681B684FF080725A607B681B6818
:105660009A687B681B6822F4C9729A604FF0807157
:10567000786800F0EFF90346032B01D103231AE009
:105680007B681B68DB6A03F00203002B0ED17B688A
:105690001B68DB6A03F40033002B07D17B681B68AF
:1056A0001A697B681B6822F001021A617B6801227B
:1056B00083F84A20002318460837BD4680BD80B5D0
:1056C00082B000AF78607B681B681B6803F0010341
:1056D000012B20D17B681B689B6803F00103012B21
:1056E00019D17B681B6801225A607B68012283F80C
:1056F00038207B681B68DB6A03F00103002B03D0B2
:10570000786800F092F902E0786800F03EF97B6872
:10571000002283F838207B681B681B6803F4007341
:10572000B3F5007F22D17B681B689B6803F400738C
:10573000B3F5007F1AD17B681B684FF400725A6082
:105740007B68022283F838207B681B68DB6A03F4DD
:105750008033002B03D0786800F067F902E07868A6
:1057600000F013F97B68002283F838207B681B68FF
:105770001B6803F48053B3F5805F17D17B681B6807
:105780009B6803F48053B3F5805F0FD17B681B687F
:105790004FF480525A607B68012283F83820786881
:1057A00000F04DF97B68002283F838207B681B6885
:1057B0001B6803F40053B3F5005F17D17B681B68C7
:1057C0009B6803F40053B3F5005F0FD17B681B683F
:1057D0004FF400525A607B68022283F838207868C0
:1057E00000F02DF97B68002283F838207B681B6865
:1057F0001B6803F00203022B0DD17B681B689B68BA
:1058000003F00203022B06D17B681B6802225A6058
:105810007868FBF709F97B681B681B6803F00403D1
:10582000042B0DD17B681B689B6803F00403042BD9
:1058300006D17B681B6804225A60786800F0AFF8D4
:105840007B681B681B6803F00803082B11D17B6879
:105850001B689B6803F00803082B0AD17B681B6850
:1058600008225A607B68012283F83820786800F0AB
:10587000A0F87B681B681B6803F40023B3F5002FB6
:1058800013D17B681B689B6803F40023B3F5002FDA
:105890000BD17B681B684FF400225A607B680222A0
:1058A00083F83820786800F084F87B681B681B68F0
:1058B00003F01003102B0DD17B681B689B6803F06D
:1058C0001003102B06D17B681B6810225A60786881
:1058D00000F079F87B681B681B6803F02003202B1D
:1058E0000DD17B681B689B6803F02003202B06D139
:1058F0007B681B6820225A60786800F06EF87B682D
:105900001B681B6803F04003402B0DD17B681B68AC
:105910009B6803F04003402B06D17B681B68402244
:105920005A60786800F063F87B681B681B6803F0B6
:105930008003802B0DD17B681B689B6803F080037C
:10594000802B06D17B681B6880225A60786800F043
:1059500058F87B681B681B6803F48073B3F5807F7D
:105960000FD17B681B689B6803F48073B3F5807F5D
:1059700007D17B681B684FF480725A60786800F02A
:105980004AF800BF0837BD4680BD80B483B000AF81
:10599000786000BF0C37BD465DF8047B704780B46B
:1059A00083B000AF786000BF0C37BD465DF8047B64
:1059B000704780B483B000AF786000BF0C37BD463D
:1059C0005DF8047B704780B483B000AF786000BF9F
:1059D0000C37BD465DF8047B704780B483B000AFE0
:1059E000786000BF0C37BD465DF8047B704780B41B
:1059F00083B000AF786000BF0C37BD465DF8047B14
:105A0000704780B483B000AF786000BF0C37BD46EC
:105A10005DF8047B704780B483B000AF786000BF4E
:105A20000C37BD465DF8047B704780B483B000AF8F
:105A3000786000BF0C37BD465DF8047B704780B4CA
:105A400083B000AF786000BF0C37BD465DF8047BC3
:105A50007047000080B485B000AF786039600023E3
:105A6000FB73124B1B68124AA2FB03239B0B4FF4E0
:105A70007A7202FB03F3BB60BB68013BBB60BB688F
:105A8000002B01D10323FB737B681B681A683B68FA
:105A900013403A689A4202D0BB68002BECD1FB7BE2
:105AA00018461437BD465DF8047B70475800002047
:105AB0005917B7D180B400AF054B9B6A044A43F035
:105AC0000103936200BFBD465DF8047B704700BFD1
:105AD0000008024680B487B000AF78601B4B9A691B
