:020000040800F2
:100000000000022011970108C7400008CF400008F7
:10001000D7400008DF400008E7400008014500081D
:10002000000000000000000000000000EF40000899
:10003000FD400008000000000B41000819410008C5
:100040000145000801450008254100080145000858
:100050000145000801450008014500080145000868
:10006000014500083D410008014500080145000820
:100070000145000801450008014500080145000848
:100080000145000801450008014500080145000838
:100090000145000801450008014500080145000828
:1000A0000145000801450008014500080145000818
:1000B00001450008794100088D410008014500080C
:1000C000A1410008B5410008C941000801450008E8
:1000D00001450008DD410008F14100080145000824
:1000E00001450008014500080145000801450008D8
:1000F00001450008014500080542000801450008C7
:100100000145000819420008014500082D42000879
:10011000014500085142000801450008014500085A
:100120000145000801450008014500080145000897
:1001300001450008C9420008014500086542000861
:100140000145000879420008A54200080145000861
:100150000145000801450008014500080145000867
:1001600010B5054C237833B9044B13B10448AFF3F1
:1001700000800123237010BD7006002000000000E5
:1001800008C5030808B5034B1BB103490348AFF387
:10019000008008BD000000007406002008C50308A8
:1001A00010B488420DD98B1898420AD2811832B106
:1001B0009A1A13F8014D9A4201F8014DF9D110BC79
:1001C0007047002AFBD00A44431E11F8014B8A42B3
:1001D00003F8014FF9D110BC704770B4840746D0C2
:1001E0004C1E002941D0D5B2034602E0611EE4B3A3
:1001F0000C4603F8015B9907F8D1032C2ED9D5B230
:1002000045EA05250F2C45EA054519D9264603F18F
:100210001001103E0F2E41F8105C41F80C5C41F8C3
:10022000085C41F8045C01F11001F2D8A4F110015E
:1002300021F00F0104F00F041031032C0B440DD9F1
:100240001E4621460439032946F8045BFAD8211FCB
:1002500021F0030104310B4404F003042CB1D2B2A9
:100260001C4403F8012BA342FBD170BC70470C4621
:100270000346C2E7034613F8012B002AFBD1181AE4
:100280000138704753B94AB9002908BF00281CBF7C
:100290004FF0FF314FF0FF3000F0B0B9ADF1080C76
:1002A0006DE904CE00F006F8DDF804E0DDE9022394
:1002B00004B070472DE9F04F099D884604468E46EC
:1002C000002B4AD18A4217465FD9B2FA82F64EB164
:1002D000C6F1200301FA06FEB740B44020FA03F34A
:1002E00043EA0E0E4FEA17481FFA87FC230CBEFBA9
:1002F000F8F108FB11EE01FB0CF243EA0E439A42BF
:1003000007D9FB1801F1FF3002D29A4200F2548162
:1003100001469B1AA2B2B3FBF8F008FB103300FBB6
:100320000CFC42EA034294450BD9BA1800F1FF33A2
:100330002CBF01240024944502D9002C00F03F81F9
:10034000184640EA0140A2EB0C0200211DB1F24028
:100350000023C5E90023BDE8F08F8B4205D90DB11C
:10036000C5E9000100210846F5E7B3FA83F1002949
:100370004ED14345C0F01281824240F20F810846BF
:10038000002DE8D0C5E9004EE5E7002A00F0AC807A
:10039000B2FA82F6002E40F0BB808B1A4FEA124E62
:1003A000BCB20121020C80B2B3FBFEFC0EFB1C337D
:1003B00042EA034304FB0CF29A420ED9FB180CF1FB
:1003C000FF382CBF4FF001094FF000099A4203D9C2
:1003D000B9F1000F00F0EC80C4469B1AB3FBFEF8A5
:1003E0000EFB183304FB08F440EA034294420BD995
:1003F000BA1808F1FF332CBF01200020944202D923
:10040000002800F0D1809846121B48EA0C409DE776
:10041000C1F120068B4008FA01F400FA01F922FA32
:1004200006F728FA06F88A401F4320FA06F3380C2C
:1004300023431FFA87FC1C0CB8FBF0FE00FB1E8850
:1004400044EA08440EFB0CF8A0450ED93C190EF105
:10045000FF3A2CBF4FF0010B4FF0000BA04503D922
:10046000BBF1000F00F0B880D646A4EB08041FFAD9
:1004700083F8B4FBF0F300FB134403FB0CFC48EAE5
:100480000444A4450ED93C1903F1FF302CBF4FF0B2
:1004900001084FF00008A44503D9B8F1000F00F09F
:1004A0009F80034643EA0E40A4EB0C04A0FB02EC41
:1004B00064457346E04602D307D1F14505D2BEEB51
:1004C00002036CEB070C0138E0465DB1B9EB0302A7
:1004D00064EB080404FA06F622FA01F3CC401E434A
:1004E000C5E90064002136E7B1FBF2FC010C1446BB
:1004F00080B2964641EA08412026904640EA0143F0
:100500001046B1FBF2F1A3EB080341EA0C414BE7C3
:10051000B740C6F1200301FA06F221FA03F84FEAC8
:10052000174E20FA03F3BCB2B0401343020C190C6F
:1005300080B2B8FBFEF90EFB198841EA084109FBBD
:1005400004F8884551D9791809F1FF3C2CBF4FF0C8
:10055000010A4FF0000A884502D9BAF1000F31D0E4
:10056000A1EB0801B1FBFEF909FB04F80EFB191120
:100570009BB243EA0143434535D2FB1809F1FF31F1
:100580002CBF4FF0010A4FF0000A4345BBD2BAF12D
:10059000000FB8D1A9F102013B44B4E7841A68EB1B
:1005A000030201209646EBE63A44A8F102082BE745
:1005B000ACF1020C3B4410E702393B44A9E63A4453
:1005C0000238BEE6A7EB0808A9F1020C4144B1FBD2
:1005D000FEF909FB04F8C9E7AEF1020E3C4444E71A
:1005E000023B3C445EE749468DE7A1EB0801CC465F
:1005F000B1FBFEF909FB04F8B8E700BF704700BF84
:1006000080B59EB000AF78600B467B807B681B781E
:1006100087F85F3097F85F30303B752B00F2FA8334
:1006200001A252F823F000BF010E000801080008E3
:10063000150E0008150E0008150E0008150E00080E
:10064000150E0008150E0008150E0008150E0008FE
:10065000150E0008150E0008150E0008150E0008EE
:10066000150E0008150E0008150E00086308000896
:100670000D0900087B0800083F0D0008A10D0008C7
:10068000650B0008150E0008150E0008150E000871
:10069000150E0008070A0008930C00086B0A0008F2
:1006A0000F0C0008090B0008150E0008150E0008B5
:1006B0008D0C0008E7090008A70C0008150E0008BB
:1006C0007F090008F30C0008150E0008150E00083D
:1006D000150E0008150E0008150E0008150E00086E
:1006E000150E0008150E0008150E0008150E00085E
:1006F000150E0008150E0008150E0008150E00084E
:10070000150E0008150E0008150E0008150E00083D
:10071000150E000821080008150E0008150E000827
:10072000150E0008150E0008150E0008150E00081D
:10073000150E0008150E0008150E0008150E00080D
:10074000150E0008150E0008150E0008150E0008FD
:10075000150E0008150E0008150E0008150E0008ED
:10076000150E0008150E0008150E0008150E0008DD
:10077000150E0008150E0008150E0008150E0008CD
:10078000150E0008150E0008150E0008150E0008BD
:10079000150E0008150E0008150E0008150E0008AD
:1007A000150E0008150E0008150E0008150E00089D
:1007B000150E0008150E0008150E0008150E00088D
:1007C000150E0008150E0008150E0008150E00087D
:1007D000150E0008150E0008150E0008150E00086D
:1007E000150E0008150E0008150E0008150E00085D
:1007F000150E0008150E0008150E0008150E00084D
:100800007B88012B08D97B6801331B78612B03D1CE
:10081000012000F035FB2EE3092000F031FB2AE334
:100820007B88012B40F2F8827B6801331B78672BB1
:1008300003D1AA49002000F03BFB7B6801331B7801
:10084000722B03D1A549042000F032FB7B680133F1
:100850001B78622B40F0E282A049082000F028FBC0
:10086000DCE29F4807F073FB9E4B00221A709E4B00
:1008700000221A7000F038FBFDE2994807F01EFBD9
:100880007B88012B3AD97B6801331B78622B35D1E9
:10089000944B01221A70944B00221A70934B1B78D0
:1008A000DBB2002B16D100222021914807F0F6F987
:1008B00001F0F6F901224FF400618E4807F0EEF9DD
:1008C00000224FF400618B4807F0E8F98A4B0022C0
:1008D0001A701AE001224FF40061864807F0DEF931
:1008E00001222021824807F0D9F901F0B1F9824BA9
:1008F00000221A70814B00221A7006E0794B002208
:100900001A70794B01221A70B5E2B4E2744807F00C
:10091000D5FA744B01221A70734B00221A70734B74
:100920001B78DBB2002B16D100222021704807F083
:10093000B5F901F0B5F901224FF400616D4807F0F7
:10094000ADF900224FF400616A4807F0A7F96A4B3D
:1009500000221A708FE201224FF40061654807F00F
:100960009DF901222021624807F098F901F070F901
:10097000614B00221A70614B00221A707BE27B8867
:10098000012B40F24D827B88013BA7F87630B7F807
:100990007630042B02D90423A7F876307B68591CE3
:1009A000B7F8762007F1400318463BF050F9B7F846
:1009B000763078333B44002203F8382C07F14003AB
:1009C00018463BF009F838673B6F002B01DC012328
:1009D0003B673B6F632B01D963233B673B6FDAB205
:1009E000474B1A7047E27B88012B08D97B6801339B
:1009F0001B78302B03D1434B00221A703BE2414B52
:100A000001221A7037E27B88012B0FD97B680133F2
:100A10001B78352B0AD100220221354807F03EF918
:100A200000220421324807F039F91DE07B88012BB0
:100A30000FD97B6801331B78342B0AD100220221A5
:100A40002B4807F02BF901220421294807F026F949
:100A50000AE001220221264807F020F900220421A1
:100A6000234807F01BF906E205E27B88012B1ED91B
:100A70007B6801331B78412B19D1002220211C48AF
:100A800007F00CF901F00CF901224FF4006119484C
:100A900007F004F900224FF40061164807F0FEF851
:100AA000154B00221A70114B00221A70E3E101224B
:100AB0004FF400610F4807F0F1F8012220210C48A3
:100AC00007F0ECF801F0C4F80B4B00221A700B4B46
:100AD00000221A70054B01221A70CCE1040000209C
:100AE000203F0020D3060020D4060020D706002097
:100AF0000004024200000242782D0020D2060020AD
:100B000000000020D60600207B88012B40F28A815D
:100B10007B88013BA7F86E30B7F86E30042B02D902
:100B20000423A7F86E307B68591CB7F86E2007F1D4
:100B3000380318463BF08BF8B7F86E3078333B44F7
:100B4000002203F8402C07F1380318463AF044FF1E
:100B500078657B6D9AB2B64B1A807B6D9AB2B54BB5
:100B60001A8088E17B88012B40F25E817B88013B03
:100B7000A7F86C30B7F86C30042B02D90423A7F81F
:100B80006C307B68591CB7F86C2007F130031846AD
:100B90003BF05DF8B7F86C3078333B44002203F843
:100BA000482C07F1300318463AF016FFF864FB6C46
:100BB000002B40F33981FB6CB3F5FA7F00F33481ED
:100BC000FB6C9D4A13609C4B1B684FF47A72B2FB1E
:100BD000F3F3013B994A1360984B1B6801335B08A0
:100BE000974A1360974B1B78DBB2002B40F01C81B7
:100BF000954B1B68914A1268DA62904B1B68924AC7
:100C0000D360914B1B688E4A1268DA630CE17B88D3
:100C1000012B40F20B817B88013BA7F86A30B7F8C3
:100C20006A30042B02D90423A7F86A307B68591C68
:100C3000B7F86A2007F1280318463BF008F8B7F820
:100C40006A3078333B44002203F8502C07F1280324
:100C500018463AF0C1FE38653B6D002B40F3E68044
:100C60003B6D202B00F3E2803B6DDBB2013BDAB23F
:100C7000764B1A70734B1B78DBB2012B40F0D68099
:100C8000724B1B78184600F0FBF8CFE000F0B6FC82
:100C9000F1E07B685A1C7B88013B9BB219461046E9
:100CA00001F056FCE7E07B88012B40F2DD807B8879
:100CB000052B28BF05239BB2013BA7F85A307B6860
:100CC000591CB7F85A2007F1200318463AF0BFFF25
:100CD000B7F85A3078333B44002203F8582C07F118
:100CE000200318463AF078FE03469AB2514B1A8018
:100CF000BAE07B88012B40F2B9807B88052B28BFA6
:100D000005239BB2013BA7F85C307B68591CB7F800
:100D10005C2007F1180318463AF099FFB7F85C30E9
:100D200078333B44002203F8602C07F1180318467F
:100D30003AF052FE03469AB2454B1A8096E07B8801
:100D4000012B40F295807B88052B28BF05239BB2A1
:100D5000013BA7F848307B68591CB7F8482007F1D9
:100D6000100318463AF073FFB7F8483078333B4425
:100D7000002203F8682C07F1100318463AF02CFE05
:100D800078667B6E002B01DC01237B667B6E1E2B5D
:100D900001D91E237B667B6EDAB22E4B1A7067E098
:100DA0007B88012B66D97B88052B28BF05239BB246
:100DB000013BA7F84A307B68591CB7F84A2007F175
:100DC000080318463AF043FFB7F84A3078333B44FB
:100DD000002203F8702C07F1080318463AF0FCFDD6
:100DE00038663B6E002B01DA00233B663B6E642BBA
:100DF00001DD64233B663B6EDAB2174B1A7039E0B3
:100E0000164807F0A4F8164B00221A70154B002262
:100E10001A7030E000BF2EE000BF2CE000BF2AE0D7
:100E200000BF28E000BF26E000BF24E000BF22E0B2
:100E300002000020280000201C00002020000020CC
:100E400024000020D706002078410020D206002090
:100E50002A0000202C0000202D000020203F002030
:100E6000D3060020D406002000BF04E000BF02E04B
:100E700000BF00E000BF00BF7837BD4680BD00BFA7
:100E800080B483B000AF0346FB71FB7903F01F030E
:100E9000054A064951F82330936100BF0C37BD461F
:100EA0005DF8047B704700BF0000024278E503084C
:100EB00080B582B000AF78603960002109480AF03F
:100EC0003DFE042107480AF039FE082105480AF0D2
:100ED00035FE796803480AF051FD00BF0837BD466A
:100EE00080BD00BFC441002080B584B002AF09209E
:100EF000FFF7C6FF01224FF40051144806F0CEFE62
:100F00000221134806F0E2FE124B1B880A220092CF
:100F1000114A1249124809F0BDFA0346FB710E4B03
:100F20001A88104B1A800F4B1B881A460E490F481F
:100F30003AF0DAFD38603B689BB21A460B490C4820
:100F40000BF0EAFF00BF0837BD4680BD0004024237
:100F5000000002421A000020D006002018000020E5
:100F6000AC3F00208C06002020C50308900600201E
:100F70001042002080B500AF0B4B93F88930DBB2F4
:100F8000012B03D0094B00221A700CE001224FF410
:100F90000051074806F082FE064B1B6800225A6289
:100FA00004480AF00FFC80BDAC3F0020D8060020AA
:100FB000000402422C41002080B582B000AF78606E
:100FC0007B681B68114A93421BD111480AF04EFC02
:100FD00000224FF400510F4806F060FE0E4B1B88B4
:100FE0000E4A0F490F4809F089FC0346002B08D030
:100FF00001224FF40051074806F050FE0A4B002230
:101000001A7000BF0837BD4680BD00BF002C0140EC
:101010002C410020000402421A000020D0060020CB
:1010200018000020AC3F0020D806002080B582B018
:1010300000AF1C4B1B6801331A4A13601A480AF0B0
:1010400015FC1A4B93F88930DBB2012B02D01748FC
:1010500009F0BAFE01224FF40051154806F01EFEB9
:10106000144BD3F89430134A43F02003C2F8943061
:10107000104BD3F8943003F020037B607B680E485C
:1010800004F004FA034603F48073002B02D00A48EC
:1010900003F056FF094B00221A7000BF0837BD4607
:1010A00080BD00BFE80600202C410020AC3F00209E
:1010B00000040242000C02460C3E0020D80600202C
:1010C00080B582B000AF7860194B1B78DBB2012B82
:1010D0000BD1184B1B780133DAB2164B1A70154B33
:1010E0001B78842B1FD9FFF7A1FF124B00221A7027
:1010F0000F4B01221A70104B1B78DBB2012B0AD167
:101100000E4B1B781846FFF7BBFE0C4B1B7818469E
:1011100000F0AAFA04E00A4B1B78184600F0A4FA83
:10112000FFF728FF00E000BF0837BD4680BD00BFC5
:10113000D8060020E4060020D7060020D2060020B2
:10114000782D002080B584B000AF78607B681B6884
:101150002A4A93424FD101224FF40051284806F009
:101160009DFD284B1A88284B1A80284B1A78284B4B
:101170001A70284B1B78DBB2002B3BD0264BD3F8E0
:101180009430254A43F02003C2F89430224BD3F820
:10119000943003F02003BB60BB68204B1B689B6846
:1011A00003F08053002B19D11C4B1B689A681B4B12
:1011B0001B6842F080529A60194B1B68194AA2FBC7
:1011C00003239A0C13469B0013449B00FB6000E032
:1011D00000BFFB685A1EFA60002BF9D102221249A7
:1011E0000E4803F0B9FD0346002B04D0094B002242
:1011F0001A7000E000BF1037BD4680BD00200046D9
:1012000000040242D0060020DA060020702D0020E3
:10121000DC060020D8060020000C02460C3E002010
:101220009800002083DE1B43E006002080B582B0DA
:1012300000AF78607B681B68184A934229D1184B2D
:101240001B889AB2174B1B781846D1B2164A4FF436
:101250009A7300FB03F3134403F598730A461A705C
:101260000F4B5B889AB20F4B1B781846D1B20E4ACF
:101270004FF49A7300FB03F3134403F22F130A464F
:101280001A700A4803F05CFE00214FF480601BF0E6
:1012900003FE00BF0837BD4680BD00BF00100246F8
:1012A000E0060020702D0020F00600200C3E0020FB
:1012B00080B582B000AF78607B681B68084A9342B3
:1012C0000AD1084B1B680133064A1360064803F035
:1012D00037FE064B00221A7000BF0837BD4680BD9E
:1012E00000100246EC0600200C3E0020D80600202C
:1012F00080B582B000AF03F0B7F97860294B1B7856
:10130000DBB2294A128891B27A68184600F0C2F915
:10131000264B1B780133DAB2244B1A70234B1B780F
:101320001F2B38D9214B00221A70214B1B78013317
:10133000DAB21F4B1A701F4B1B78012B0DD1A42161
:101340001D4800F03BFC03467B807B88002B04D0CB
:101350007B881946184800F0FFFB154B1B78012BC2
:1013600019D9134B00221A70144BD3F88830202B54
:1013700007D1134B1B78DBB2012B02D100F0BCFB71
:1013800009E0104B1B78DBB2012B04D100214FF494
:1013900000701BF081FD0C4B00221A7000BF083753
:1013A000BD4680BDDC060020DA060020782D002036
:1013B000792D0020D60600207C2D00201042002030
:1013C000D4060020D3060020D806002080B582B0C5
:1013D00000AF78607B68C622002118463AF0F2FB25
:1013E0007B680022C3F8C8207B68002283F8CC20E9
:1013F0007B68002283F8CD207B680022A3F8CE20F2
:101400007B68002283F8D0207B68002283F8D120FB
:101410007B68002283F8D2207B68002283F8D320E7
:101420007B680022A3F8D4207B68002283F8E020A8
:101430007B680022C3F8E4207B68002283F8E82060
:101440007B680022A3F8EA207B68EC333C22002171
:1014500018463AF0B7FB7B68002283F828217B68A6
:101460000022A3F82A217B680022A3F82C217B68A4
:10147000002283F82E2100BF0837BD4680BD000042
:1014800080B485B000AF78600B467B807B6893F8B2
:10149000CC30FB737B6893F8CD307B73294B1B7882
:1014A000BB73BB7B002B01D10123BB73BB7B632BC5
:1014B00001D96323BB737A7BBB7B9A4205D27B7BCA
:1014C0000133DAB27B6883F8CD207B68D3F8C8306B
:1014D000F97B7A6832F811209A1A7B68C3F8C82021
:1014E0007B68D3F8C8207B881A447B68C3F8C8207F
:1014F000FA7B7B68798823F81210FB7B0133FB733E
:10150000FA7BBB7B9A4201D30023FB737B68FA7B97
:1015100083F8CC207B6893F8CD303B733B7B002B6A
:1015200001D17B8807E07B68D3F8C8203B7BB2FB06
:10153000F3F37B817B8918461437BD465DF8047B45
:10154000704700BF0000002080B485B000AF0346A4
:10155000FB800B46BB801346FB70BA88FB88D31A0E
:10156000FB60FB78FA6842FA03F39AB2FB881344F3
:10157000FB80FB8818461437BD465DF8047B704736
:1015800080B588B000AF03463960FB711A4B1B6809
:10159000002B2DD0FB793B723B68D3F8E430FB6025
:1015A0003B6893F8E030BB76BB7E052B01D9052361
:1015B000BB760023FB7710E0FB7FFA7F3968683346
:1015C0005B000B44D988131D5B0020333B440A4663
:1015D00023F8182CFB7F0133FB77BB7EFA7F9A42FE
:1015E000EAD3054B1B6807F108021046984700E054
:1015F00000BF2037BD4680BD742D002080B582B06D
:1016000000AF0023FB710CE0FB794FF49A7202FBF0
:1016100003F30A4A13441846FFF7D8FEFB79013357
:10162000FB71FB791F2BEFD9054B00221A70054B7C
:1016300000221A6000BF0837BD4680BDF0060020BA
:10164000702D0020742D002080B483B000AF78602E
:10165000044A7B68136000BF0C37BD465DF8047B0D
:10166000704700BF742D002080B483B000AF0346E4
:10167000FB71FB791F2B01D90023FB71044AFB7915
:10168000137000BF0C37BD465DF8047B704700BF88
:10169000702D002080B58CB000AF03463A60FB711E
:1016A0000B46BB80FB7987F82D3097F82D301F2B28
:1016B00000F2A18197F82D304FF49A7202FB03F3E8
:1016C0008B4A1344BB62BB881946B86AFFF7D8FE41
:1016D0000346FB84BB6ABA88A3F8D420BB6AB3F87C
:1016E000EA30952B2BD8BB6AB3F8EA3001339AB2B3
:1016F000BB6AA3F8EA20BB6AFA8CA3F8CE20BB6AC7
:1017000093F82831BA6A74335B001344FA8C9A80D8
:10171000BB6A93F8283101331946764BA3FB0123AA
:101720001A0913461B019B1A5B00CA1AD2B2BB6A84
:1017300083F82821BB6A002283F8D0205EE1BB6ACF
:1017400093F828216C4B1B789A4203D3BB6A002282
:1017500083F82821BB6A93F82831BA6A74335B0096
:1017600013449B88BB84BB6A93F82831BA6A7433EC
:101770005B001344FA8C9A80BB6A93F828310133DA
:101780005D4A127893FBF2F101FB02F29B1ADAB286
:10179000BB6A83F82821BB6A93F8D030022B62D051
:1017A000022B00F32381002B02D0012B56D01DE128
:1017B000FA8CBB8CD31AFB60FB68002BB8BF5B4272
:1017C000BB604E4B1B881A46BB68934238D9BB6A34
:1017D000022283F8D0204A4B1B88DAB2BB6A83F816
:1017E000D320BB6ABA8CA3F82A21FB68002B01DD49
:1017F000012201E04FF0FF32BB6A83F82E21BB6A61
:10180000FA8CA3F82C21BB6A002283F8E020BB6A83
:101810003A68C3F8E420BB6A93F8E030042B00F286
:10182000EC80BB6A93F8E0305A1CD1B2BA6A82F8F5
:10183000E010BA6A68335B001344FA8CDA80DCE0AB
:10184000BB6AB3F8CE30F98C08221846FFF77CFE4D
:1018500003461A46BB6AA3F8CE20CEE0BB6A00223C
:1018600083F8D020CAE0BB6AFA8CA3F8CE20BB6A0A
:1018700093F92E31012B09D1BB6AB3F82C31FA8CC4
:101880009A4203D9BB6AFA8CA3F82C21BB6A93F95C
:101890002E31B3F1FF3F09D1BB6AB3F82C31FA8C7A
:1018A0009A4203D2BB6AFA8CA3F82C21BB6A93F844
:1018B000E030042B0DD8BB6A93F8E0305A1CD1B24B
:1018C000BA6A82F8E010BA6A68335B001344FA8C93
:1018D000DA80BB6A93F8D330002B13D0BB6A93F83D
:1018E000D330013BDAB2BB6A83F8D32086E000BF75
:1018F000F0060020898888882C000020280000201D
:101900002A000020FB8CBA6AB2F82A219B1A3B629B
:10191000BB6AB3F82C311A46BB6AB3F82A31D31A22
:10192000FB613B6A002BB8BF5B42BB61FB69002BCC
:10193000B8BF5B427B61002387F82F30BB6A93F905
:101940002E31012B02D13B6A002B08DBBB6A93F9D5
:101950002E31B3F1FF3F05D13B6A002B02DD01239D
:1019600087F82F30002387F82E307B69002B19D0A1
:10197000BB6AB3F82C311A46FB8CD31A002BB8BFC4
:101980005B423B613B69642203FB02F21D4B1B7807
:1019900019467B6901FB03F39A4206D9012387F8B4
:1019A0002E3002E0012387F82E3097F82F30002BDD
:1019B00011D197F82E30002B0DD1134B1B881A46EE
:1019C000BB69934207D9BB6A93F8E8300133DAB2B6
:1019D000BB6A83F8E820BB6A002283F8D02097F81E
:1019E0002D30B96A1846FFF7CBFD07E0BB6A00222D
:1019F00083F8D02002E000BF00E000BF3037BD46D2
:101A000080BD00BF2D0000202800002080B487B0DA
:101A100000AF78600B467B807B687B617B695A1CDA
:101A20007A61AA221A707B695A1C7A6155221A704F
:101A30000023FB7447E0FB7C2E4A4FF49A7101FBB4
:101A400003F31344D4331B883B82FB7C294A4FF4B5
:101A50009A7101FB03F3134403F22F131B78FB73FA
:101A6000FB7C244A4FF49A7101FB03F3134403F502
:101A700098731B78BB73FA7C7B69591C79611D498B
:101A80004FF49A7000FB02F20A44E83212781A709E
:101A90003B8A1B0A99B27B695A1C7A61CAB21A70D6
:101AA0007B695A1C7A613A8AD2B21A707B695A1CD5
:101AB0007A61FA7B1A707B695A1C7A61BA7B1A7058
:101AC000FB7C0133FB74FB7C1F2BB4D97B695A1C54
:101AD0007A610D221A707B695A1C7A610A221A7087
:101AE0007A697B68D31A9BB218461C37BD465DF8ED
:101AF000047B7047F006002080B582B000AFA421BF
:101B00000948FFF783FF0346FB80FB88002B06D0C4
:101B1000FB881A46044905480BF0FEF900E000BFB7
:101B20000837BD4680BD00BF7C2D0020104200203C
:101B300080B584B000AF78607B681B68054A93422B
:101B400003D1786804F00AFAF86000BF1037BD4688
:101B500080BD00BF0054004680B582B000AF786001
:101B60000B467B807A88124B1B681344B3F5004FF9
:101B700002D30F4B00221A600D4B1B680D4A134411
:101B80007A88796818463AF062F87A88084B1B68B8
:101B90001344074A1360064B1B68B3F5804F02D30A
:101BA000054B01221A7000BF0837BD4680BD00BF3B
:101BB00048E4002048640020D506002080B485B0A9
:101BC00000AF78600B467B807B68FB60FB685A1C2B
:101BD000FA60AA221A70FB685A1CFA6055221A7021
:101BE0000023FB721AE0FB7A184A4FF49A7101FB4A
:101BF00003F31344D4331B883B813B891B0A99B2FE
:101C0000FB685A1CFA60CAB21A70FB685A1CFA6068
:101C10003A89D2B21A70FB7A0133FB72FB7A1F2B1E
:101C2000E1D9FB685A1CFA600D221A70FB685A1C35
:101C3000FA600A221A70FA687B68D31A9BB21846B7
:101C40001437BD465DF8047B704700BFF0060020E6
:101C500080B586B000AF08210F4809F06FFF3B1D2B
:101C600000221A605A609A60DA601A6180237B60F1
:101C70000123BB600023FB6000233B613B1D194631
:101C8000064805F0F9FD00228021044806F006F818
:101C900000BF1837BD4680BD7841002000000242D9
:101CA00080B58EB000AF364BD3F89C30344A43F049
:101CB0000103C2F89C30324BD3F89C3003F001038F
:101CC0007B607B682E4BD3F88C302D4A43F00103A8
:101CD000C2F88C302A4BD3F88C3003F001033B6000
:101CE0003B6807F1240300221A605A609A60DA60A8
:101CF0001A6180237B620223BB620023FB62002304
:101D00003B6301237B6307F1240319461D4805F05B
:101D1000B3FD1D4B1B685F229A621B4B1B681B4A5D
:101D20001268DA62194B1B68174AD36007F108037F
:101D300000221A605A609A60DA601A615A619A61E8
:101D40006023BB60124B1B68FB6000233B610023D8
:101D5000BB6107F10803082219460B480AF002FA92
:101D6000094B1B6800225A62012107480AF00EFB4A
:101D70000821054809F002FE00BF3837BD4680BD86
:101D8000000C0246000002427841002020000020A2
:101D90002400002080B400AF064BD3F8F430054A8D
:101DA00043F40003C2F8F43000BFBD465DF8047B85
:101DB000704700BF000C024680B500AF00F050F83D
:101DC00000BF80BD80B582B000AF786000201AF0FF
:101DD00062FD00F05FF800F075F800F0AFF800F079
:101DE00077F800F087F800F09DF8174B1B884FF646
:101DF000FF72934211D0144B1B88002B0BD0124B57
:101E00001B889B0223F4FF5323F01F0303F1FF639E
:101E100003F5F82302E00D4B00E00C4B184613F0DD
:101E20009DFA0346002B01D001F086FB17F038FD28
:101E30000121022012F0AEFD00201AF037FD002330
:101E400018460837BD4680BDA007F90B00C00F0833
:101E500080B500AF4FF0FF301AF07AFE00BF80BDB2
:101E600080B582B000AF00237B603B1D1946002087
:101E700016F066FC0346002B03D00C2007F05EFC36
:101E800004E07B689B7B184607F058FC00BF0837CE
:101E9000BD4680BD80B500AFFFF77CFF1BF080F82A
:101EA000064806F0BBFA01F025FA054B93E803005B
:101EB00015F094FC16F096FA00BF80BD400000308B
:101EC0003000002080B500AF17F074F800BF80BD6F
:101ED00080B500AF102012F021FA12F0D5F912F0FF
:101EE00017F9034A002101201AF0B4FF00BF80BD9A
:101EF0000142010880B500AF094A00214FF480700B
:101F00001AF0A8FF0121012012F044FD0021022057
:101F100012F040FD0021002012F03CFD00BF80BD0A
:101F2000114D010880B500AF034A002140201AF08E
:101F300091FF00BF80BD00BFB5C0010880B500AFF4
:101F4000074815F0A5FC0346002B01D001F0F4FA78
:101F5000044A002120201AF07DFF00BF80BD00BF91
:101F600048000020A57F010880B400AF00BFBD4637
:101F70005DF8047B704780B400AF00BFBD465DF8DC
:101F8000047B704780B400AF00BFBD465DF8047BA2
:101F9000704780B500AF002140201AF07DFF00BFE0
:101FA00080BD80B500AF002101201AF075FF00BF91
:101FB00080BD000080B483B000AF78607B68074AC2
:101FC0001A607B68064A5A607B68064A9A6000BFBE
:101FD0000C37BD465DF8047B704700BFF91F000851
:101FE000172000083320000880B500AF0021202012
:101FF0001AF052FF00BF80BD80B582B000AF78609C
:1020000039603B689B001946786816F0F7F800BF06
:102010000837BD4680BD80B582B000AF78607B6870
:102020009B00184616F01EF8034618460837BD46B2
:1020300080BD80B582B000AF7860786816F0A2F8F5
:1020400000BF0837BD4680BD80B500AF00214FF40A
:1020500080701AF021FF00BF80BD80B400AF00BFC8
:10206000BD465DF8047B704780B400AF00BFBD463D
:102070005DF8047B704780B483B000AF78600B4696
:102080007B8000BF0C37BD465DF8047B70470000C5
:1020900080B487B000AF786039607B687B614FF0B7
:1020A000FF333B611AE07B695A1C7A611B781A4640
:1020B0003B6953403B610023FB730CE03B695A08CA
:1020C0003B6903F0010359420B4B0B4053403B610A
:1020D000FB7B0133FB73FB7B072BEFD93B685A1E5D
:1020E0003A60002BDFD13B69DB4318461C37BD4605
:1020F0005DF8047B704700BF2083B8ED80B485B0E5
:1021000000AF78600B467B807B88002B02D07B88F9
:102110000A2B01D9002329E00023FB8121E0FB8960
:102120007A6813441B787B737B7B402B02D97B7BC3
:102130005A2B13D97B7B602B02D97B7B7A2B0DD951
:102140007B7B2F2B02D97B7B392B07D97B7B5F2BAA
:1021500004D07B7B2D2B01D0002307E0FB890133CA
:10216000FB81FA897B889A42D9D301231846143718
:10217000BD465DF8047B704780B483B000AF154A5C
:10218000154B1344154A9B1A7B60154B1B884FF661
:10219000FF72934211D0124B1B88002B0BD0104BB7
:1021A0001B889B0223F4FF5323F01F0303F1FF63FB
:1021B00003F5F42302E00B4B00E00A4B7A689342EC
:1021C00001D3012300E0002318460C37BD465DF81B
:1021D000047B7047E8D90408700600200000002046
:1021E000A007F90B00A00F0880B582B000AF78609F
:1021F0007B681B68114A93421AD17B689B88012B2C
:1022000016D17B6803F108027B68DB88194610460B
:10221000FFF774FF0346002B0AD02C217868FFF7E4
:1022200037FF02467B68DB6A9A4201D1012300E056
:10223000002318460837BD4680BD00BF44434647CB
:1022400080B582B000AF7860044B00221A707868C5
:1022500019F072FA00BF0837BD4680BDD83D002096
:1022600080B582B000AF174B1B884FF6FF729342C8
:102270000BD0144B1B88002B05D0124B1B889B02E4
:102280005B0B033B02E07D2300E07D230E4A01212E
:10229000184612F0CDFC0346FB71FB79002B03D1ED
:1022A0000A4B02221A7009E0FB79012B03D1074B7C
:1022B00001221A7002E00648FFF7C2FF00BF08378C
:1022C000BD4680BDA007F90B64000020D83D00206A
:1022D0002CC5030880B582B000AF1B4B1B884FF69E
:1022E000FF72934212D0184B1B88002B0CD0164B58
:1022F0001B889B0223F4FF5323F01F0303F1FF63AA
:1023000003F5F423194602E0104900E00F49104B91
:102310000C22104812F004FC0346FB71FB79002BE1
:1023200003D10D4B04221A7009E0FB79012B03D174
:10233000094B03221A7002E00848FFF781FF00BF33
:102340000837BD4680BD00BFA007F90B00A00F08ED
:1023500064000020DC3D0020D83D00202CC503088F
:1023600080B584B000AF254B1B884FF6FF729342B7
:1023700011D0224B1B88002B0BD0204B1B889B02BB
:1023800023F4FF5323F01F0303F1FF6303F5F4234A
:1023900002E01B4B00E01A4B30221A49184639F074
:1023A00001FC0346002B03D01748FFF749FF22E04A
:1023B000144BDB881A461549154839F048FC114B77
:1023C000DB881A46124B002199540E4BDB88DAB297
:1023D000104B1A704C233B702B237B700D4B1B78DA
:1023E0005A1C3B4602330A49184639F030FC3B463A
:1023F0001846FFF725FF1037BD4680BDA007F90B33
:1024000000A00F08DC3D002034C50308E43D002097
:10241000580000206300002080B582B000AF034662
:10242000FB711B4B1B78013B032B23D801A252F8F5
:1024300023F000BF45240008512400085D24000853
:1024400069240008FB79012B16D1FFF709FF13E07F
:10245000FB79002B12D1FFF73DFF0FE0FB79012B39
:102460000ED1FFF737FF0BE0FB79002B0AD1FFF706
:1024700077FF07E000BF06E000BF04E000BF02E016
:1024800000BF00E000BF00BF0837BD4680BD00BFF1
:10249000D83D002080B582B000AF1E4B1B884FF6A0
:1024A000FF72934211D01B4B1B88002B0BD0194B92
:1024B0001B889B0223F4FF5323F01F0303F1FF63E8
:1024C00003F5F42302E0144B00E0134B7B60FFF7AD
:1024D00053FE0346002B19D07868FFF785FE0346AC
:1024E000002B13D07B6803F108017B68DB881A4658
:1024F0000A4839F0ACFB7B68DB881A46074B0021A1
:1025000099547B68DB88DAB2054B1A7000BF083734
:10251000BD4680BDA007F90B00A00F0858000020A1
:102520006300002080B483B000AF78607B68002B2C
:1025300003D0054B1A787B681A70044B18460C3789
:10254000BD465DF8047B7047630000205800002002
:1025500080B584B000AF78600B467B800023FB81A0
:1025600002E0FB890133FB81FA897B889A4205D21C
:10257000FB897A6813441B78002BF2D1FB897B809E
:10258000324B1B78002B03D0314819F0D5F859E0B5
:102590007B8819467868FFF7B1FD0346002B03D10D
:1025A0002C4819F0C9F84DE0FFF7E6FD0346002B73
:1025B00003D1294819F0C0F844E03022002127480F
:1025C00039F000FB254B264A1A60244B01229A80E1
:1025D000224A7B88D3807B881A467968214839F063
:1025E00036FB1E4B4FF0FF329A622C211B48FFF73F
:1025F0004FFD0346194AD3621B4B1B884FF6FF72EF
:10260000934211D0184B1B88002B0BD0164B1B8804
:102610009B0223F4FF5323F01F0303F1FF6303F531
:10262000F42302E0114B00E0104B30220B49184616
:1026300039F0B8FA0346002B02D1FFF791FE01E012
:10264000FFF70EFE1037BD4680BD00BFD83D00200D
:1026500040C5030848C5030850C50308DC3D0020F9
:1026600044434647E43D0020A007F90B00A00F08B3
:1026700080B483B000AF7860084B5B6823F480724D
:102680007B68DB4303F48073044913434B6000BF52
:102690000C37BD465DF8047B704700BF000802465A
:1026A00080B400AF054B1B68044A43F0010313607C
:1026B00000BFBD465DF8047B704700BF00040340C7
:1026C00080B483B000AF7860064B1B6823F004022F
:1026D00004497B6813430B6000BF0C37BD465DF8AF
:1026E000047B704700040340B0B483B000AF78604F
:1026F000074A7B6814461D460FCD0FC42B68236024
:10270000044B01221A7000BF0C37BD46B0BC7047A5
:10271000CC430020C843002080B500AF394B1B7864
:10272000002B6CD1384805F012FC384808F04CFBFF
:1027300001224FF40051364805F0B0FA334B1B68C4
:102740001A68324B1B6822F001021A602F4B0722D5
:10275000DA602E4B4FF0E042DA612C4B00225A63D4
:102760002A4B0022DA63294807F0B0FB274B1B688D
:102770001A68264B1B6842F001021A6001222549A3
:1027800025480FF07FF80346002B0ED13222234953
:1027900023480FF0C1F80346002B0AD1194B012240
:1027A0001A70204B00221A6003E01F490420FEF734
:1027B0007FFB164B1B681A68144B1B6822F0010242
:1027C0001A6000F023FC114B1B689A690F4B1B68C1
:1027D00042F040029A6100224FF400510C4805F08B
:1027E0005DFA124B1B78DBB2002B04D1104B1B7827
:1027F000DBB2002B04D0044805F060FB00E000BF12
:1028000080BD00BF40640020203F0020AC3F00207E
:102810000004024258C50308E04300205CC50308D9
:10282000185400204464002070000020D4060020CA
:10283000D306002080B586B000AF78603960474B82
:102840001B78002B00F08580454805F080FB45484B
:1028500008F0BAFA01224FF40051434805F01EFA7D
:10286000404B1B681A683F4B1B6822F001021A603C
:102870003C4B0722DA603B4B4FF04052DA61394B58
:1028800000225A63374B0022DA63364807F01EFBFA
:1028900006E0344B1B6830331B78DBB2FB73FB7BE9
:1028A000304B1B685B6903F00103012BF1D02D4B0A
:1028B0001B681A682B4B1B6842F001021A6007F173
:1028C00010033A68796829480FF0BCF90346FB7594
:1028D000FB7D002B11D1264B1A683B691344244A17
:1028E0001360234B1B68B3F5803F0CD91F480FF0D2
:1028F00031FB1F4B00221A6005E01C480FF0A9FBBA
:10290000164B00221A70174B1B681A68154B1B6870
:1029100022F001021A6000F079FB124B1B689A69E1
:10292000104B1B6842F040029A6100224FF40051A4
:102930000D4805F0B3F90F4B1B78DBB2002B04D127
:102940000D4B1B78DBB2002B04D0054805F0B6FA1E
:1029500000E000BF1837BD4680BD00BF40640020C6
:10296000203F0020AC3F0020000402421854002009
:1029700044640020D4060020D306002080B500AFB8
:10298000314B1B78002B5CD0304805F0E0FA304822
:1029900008F01AFA01224FF400512E4805F07EF992
:1029A0002B4B1B681A682A4B1B6822F001021A6025
:1029B000274B0722DA60264B4FF04052DA61244B56
:1029C00000225A63224B0022DA63214807F07EFA84
:1029D0001F4B1B681A681E4B1B6842F001021A60ED
:1029E0001D480FF036FB00221C4900200EF04AFF64
:1029F000154B00221A70164B1B681A68144B1B6883
:102A000022F001021A6000F001FB114B1B689A6969
:102A10000F4B1B6842F040029A6100224FF40051B4
:102A20000C4805F03BF90E4B1B78DBB2002B04D1B0
:102A30000C4B1B78DBB2002B04D0044805F03EFAA7
:102A400000E000BF80BD00BF40640020203F0020A8
:102A5000AC3F0020000402421854002058C503086F
:102A6000D4060020D306002080B500AF01F04AFD57
:102A7000FFF7A2F900F090F800F0FCF800F088FCF5
:102A800000F0C0F900F03EFA00F050FA00F0FAF958
:102A900000F0BCFB00F0BAFA00F086F900F000FA92
:102AA00000F01EFB00F05AFB00F000F92F4802F086
:102AB000D8FE012201212E4805F0F0F8FEF79EFD18
:102AC0002C48FEF7C1FD2C490020FEF7F1F9352016
:102AD00003F097FB294803F0ADF9322001F0D0FD57
:102AE000274B4FF40032DA60254B4FF400321A6165
:102AF000352003F0C5FB352003F075FB01224FF4B0
:102B000000511B4805F0CAF8FFF7A2F80020FFF7B4
:102B100059F9FFF79DF91B4B1B78012B06D11A4B76
:102B20001B78002B02D1FFF7F7FD09E0154B1B784E
:102B3000002B05D1144B1B78012B01D1FFF71EFF91
:102B4000124B1B78DBB2002BE3D0104B00221A7023
:102B50000D4B1B78002B05D00D4B1B6819460D48FB
:102B6000FFF768FE0A4B00221A60D2E70C3E0020F5
:102B700000040242E926000870000020F03E002018
:102B800000200246D606002040640020D506002022
:102B900048E400204864002080B598B000AF07F1F9
:102BA000200340220021184639F00CF83B46202231
:102BB0000021184639F006F8022005F0CBFC4FF44E
:102BC000803005F069FC0346002B01D000F0B4FC16
:102BD00005F014FC264BD3F8F03023F01803244AF8
:102BE00043F00803C2F8F03007233B624FF4803310
:102BF0007B620023BB628123FB624FF480733B63E3
:102C000010237B6300233B6407F12003184605F083
:102C100037FD0346002B01D000F08EFC3F233B60C4
:102C200002237B600023BB600023FB6040233B61E9
:102C300000237B610023BB610023FB613B46002135
:102C4000184606F02DF90346002B01D000F074FC65
:102C5000022003F023FB0E2001F074FC0346002B3E
:102C600001D000F069FC00BF6037BD4680BD00BFE9
:102C7000000C024680B592B000AF3B4648220021CE
:102C8000184638F09FFF4FF400433B604FF4802319
:102C90007B643B46184606F045FB0346002B01D0FB
:102CA00000F04AFC00BF4837BD4680BD80B584B007
:102CB00000AF3B1D00221A605A609A60364B374ABB
:102CC0001A60354B4FF4E0125A60334B08229A6079
:102CD000314B0022DA60304B4FF400121A612E4B58
:102CE00004225A612C4B00225A762B4B0022DA61C7
:102CF000294B00221A76284B002283F82020264BED
:102D000002225A62244B002283F82820224B002200
:102D1000DA62214B00221A631F4B002283F8342011
:102D20001D4B4FF000525A651B4B4FF480529A6373
:102D3000194B0622DA63184B00221A64164B002244
:102D400083F84420144801F059FE0346002B01D0BB
:102D500000F0F2FB124B7B600023BB600023FB60A2
:102D60003B1D19460C4802F07BFA0346002B01D0AC
:102D700000F0E2FB0B4B7B600423BB603B1D19465C
:102D8000054802F06DFA0346002B01D000F0D4FB99
:102D900000BF1037BD4680BD0C3E0020001002462B
:102DA000000100201000001080B500AF134B144A42
:102DB0001A60124B00221A61104B30225A610F4BDD
:102DC0000022DA610D4B00229A600C4B00229A61BE
:102DD0000A4B00221A62094B0022DA60074B0022DC
:102DE0005A60064B31225A62044802F0DFFE034665
:102DF000002B01D000F0A0FB00BF80BDF03E002002
:102E00000054004680B582B000AF1D4BD3F8883027
:102E10001B4A43F00103C2F88830194BD3F88830BD
:102E200003F001037B607B68002206211D2003F074
:102E3000BDF91D2003F0D7F9002205211E2003F063
:102E4000B5F91E2003F0CFF900220521202003F060
:102E5000ADF9202003F0C7F900220521212003F05D
:102E6000A5F9212003F0BFF900220521222003F05B
:102E70009DF9222003F0B7F900BF0837BD4680BD99
:102E8000000C024680B500AF4FF48070FFF7F0FBF6
:102E90000020FFF715FCFFF703FC00BF80BD00001A
:102EA00080B500AF154B164A1A60144B00225A60C9
:102EB000124B4FF400729A60104B4FF6FF725A613A
:102EC0000E4B42F6DF621A620C4B00225A620B4B29
:102ED00000229A62094B0022DA62084B00221A6330
:102EE000064B00225A63054804F00AFF0346002BF4
:102EF00001D000F021FB00BF80BD00BF203F0020BB
:102F00000044004680B500AF064B074A1A600548EA
:102F100005F06CFB0346002B01D000F00DFB00BF59
:102F200080BD00BF703F00200060024080B594B0BB
:102F300000AF07F1340300221A605A609A60DA6029
:102F40001A615A619A613B1D30220021184638F0FF
:102F500039FE2C4B2C4A1A602A4B1F229A60294BAF
:102F600000221A61274B00225A61264B00229A61E7
:102F7000244B4FF08042DA61224B00221A62214B2F
:102F80004FF480725A621F4806F014FC0346002B6F
:102F900001D000F0D1FA00237B6300233B640023BF
:102FA0007B640023BB6407F134031946154806F01F
:102FB0005FFF0346002B01D000F0BEFA114806F077
:102FC000DBFE0346002B01D000F0B6FA00233B6283
:102FD0000023BB600023BB614FF07C53FB614FF4C7
:102FE00080733B633B1D01221946064806F064FCD2
:102FF0000346002B01D000F09FFA00BF5037BD46BA
:1030000080BD00BF7C3F00200078004680B584B0C2
:1030100000AF3B1D00221A605A609A602E4B2F4A67
:103020001A602D4B4FF480025A602B4B00229A609D
:10303000294B0F22DA60284B00221A61264B00220E
:103040005A61254B4FF080629A61234B4FF000523A
:10305000DA61214B00221A621F4B00225A621E4B7A
:1030600000229A621C4B0722DA621B4B00225A6331
:10307000194B00229A63184B0022DA63164B002288
:103080009A64154B0022DA64134B00221A65124B26
:1030900000225A65104B00229A650F4B0022DA6518
:1030A0000D4B00221A660C4806F010FF0346002B59
:1030B00001D000F041FA00237B603B1D1946064811
:1030C00008F03FFB0346002B01D000F035FA00BFAB
:1030D0001037BD4680BD00BFAC3F00200020004639
:1030E00080B584B000AF3B1D00221A605A609A6020
:1030F000184B194A1A60174B20225A60154B0022B0
:103100009A60144B2322DA60124B00221A61114B91
:1031100000225A610F4B00229A6108210D4808F0E5
:1031200081FE0346002B01D000F006FA00237B60ED
:103130000023BB600023FB603B1D1946054809F0D6
:10314000B1FC0346002B01D000F0F6F900BF1037A8
:10315000BD4680BD2C410020002C014080B58AB0C6
:1031600000AF07F11C0300221A605A609A603B46C8
:1031700000221A605A609A60DA601A615A619A6194
:10318000214B4FF080421A601F4B5F225A601E4B4A
:1031900000229A601C4BF922DA601B4B00221A6154
:1031A000194B00229A61184808F090FB0346002B47
:1031B00001D000F0C1F90023FB6100237B6207F11D
:1031C0001C031946104809F06DFC0346002B01D082
:1031D00000F0B2F960233B607D237B600023BB607D
:1031E00000233B613B4608221946074808F0BAFF16
:1031F0000346002B01D000F09FF9034800F01EFDAC
:1032000000BF2837BD4680BD7841002080B58AB018
:1032100000AF07F11C0300221A605A609A603B4617
:1032200000221A605A609A60DA601A615A619A61E3
:103230002E4B2F4A1A602D4B00225A602B4B002236
:103240009A602A4B4FF6FF72DA60284B00221A610F
:10325000264B00229A61254808F038FB0346002BD4
:1032600001D000F069F90023FB6100237B6207F1C4
:103270001C0319461D4809F015FC0346002B01D01C
:1032800000F05AF960233B6043F2C8237B600023BF
:10329000BB6000233B613B4600221946134808F0FF
:1032A00061FF0346002B01D000F046F900237B604C
:1032B0003B46042219460D4808F054FF0346002BF4
:1032C00001D000F039F93B4608221946074808F0BA
:1032D00049FF0346002B01D000F02EF9034800F00F
:1032E000ADFC00BF2837BD4680BD00BFC4410020F3
:1032F0000004004080B500AF234B244A1A60224BE3
:103300004FF4E1325A60204B00229A601E4B00229B
:10331000DA601D4B00221A611B4B0C225A611A4BBA
:1033200000229A61184B4FF40042DA61164B0022DA
:103330001A62154B00225A62134B00229A621248FD
:1033400009F05EFC0346002B01D000F0F5F80021E7
:103350000D480CF0ACF80346002B01D000F0ECF85F
:10336000002109480CF0E1F80346002B01D000F0E1
:10337000E3F805480CF060F80346002B01D000F09C
:10338000DBF800BF80BD00BF1042002000380140C4
:1033900080B588B000AF07F10C0300221A605A60B4
:1033A0009A60DA601A61604BD3F88C305E4A43F061
:1033B0000103C2F88C305C4BD3F88C3003F001036E
:1033C000BB60BB68584BD3F88C30574A43F00203BC
:1033D000C2F88C30544BD3F88C3003F002037B607E
:1033E0007B68514BD3F88C304F4A43F00403C2F84A
:1033F0008C304D4BD3F88C3003F004033B603B68BA
:10340000002242F2B501494804F048FC01224FF481
:103410000061464804F042FC002241F6580144484D
:1034200004F03CFC42F21103FB6001233B610023EA
:103430007B610023BB6107F10C0319463B4804F094
:103440001BFA40F60403FB6001233B6101237B610F
:103450000023BB6107F10C031946344804F00CFA51
:1034600041F25803FB6001233B6100237B61002391
:10347000BB6107F10C0319462D4804F0FDF94FF428
:103480000053FB6000233B6100237B6107F10C03C9
:103490001946284804F0F0F94023FB6003233B6100
:1034A00002237B6107F10C031946204804F0E4F97C
:1034B000A023FB6001233B6102237B610023BB61EE
:1034C00007F10C031946194804F0D6F94FF40043EC
:1034D000FB6000233B6102237B6107F10C0319466B
:1034E000134804F0C9F94FF40063FB6001233B610A
:1034F00002237B610023BB6107F10C0319460C48D2
:1035000004F0BAF948F20203FB6000233B61002398
:103510007B6107F10C031946044804F0ADF900BFC4
:103520002037BD4680BD00BF000C024600040242A9
:10353000000002420008024280B400AF72B600BF31
:1035400000BFFDE780B582B000AF114BD3F89430D7
:103550000F4A43F00403C2F894300D4BD3F8943073
:1035600003F004037B607B6800220121092002F044
:103570001DFE092002F037FE00220521422002F044
:1035800015FE422002F02FFE00BF0837BD4680BD69
:10359000000C024680B59CB000AF786007F15C0378
:1035A00000221A605A609A60DA601A6107F1140307
:1035B00048220021184638F005FB7B681B68464A04
:1035C000934240F084804FF400537B6100233B65BD
:1035D00007F11403184605F0A5FE0346002B01D0A1
:1035E000FFF7AAFF3D4BD3F894303C4A43F0200349
:1035F000C2F89430394BD3F8943003F020033B6188
:103600003B69364BD3F88C30344A43F00103C2F89F
:103610008C30324BD3F88C3003F00103FB60FB6835
:103620002223FB6503233B6600237B6607F15C03D3
:1036300019462B4804F020F92A4B2B4A1A60294BD3
:1036400000225A60274B00229A60264B0022DA6043
:10365000244B00221A61234B4FF400225A61214B64
:1036600001229A611F4B4FF48032DA611D4B002218
:103670001A621C4B01225A621A4B01229A62194BA0
:103680000022DA62174B00221A63164B00225A639B
:10369000144803F0D5F80346002B01D0FFF74CFF88
:1036A0007B68104A9A650F4A7B68D36510210D48E4
:1036B00003F061FC0346002B01D0FFF73DFF002221
:1036C0000521412002F072FD412002F08CFD00BF77
:1036D0007037BD4680BD00BF00100246000C024698
:1036E00000000242783E0020D002024080B58AB03D
:1036F00000AF786007F1140300221A605A609A60E4
:10370000DA601A617B681B681C4A934231D11C4BFA
:10371000D3F8A8301A4A43F40043C2F8A830184B33
:10372000D3F8A83003F400433B613B69144BD3F852
:103730008C30134A43F00103C2F88C30104BD3F89D
:103740008C3003F00103FB60FB6804237B610323DF
:10375000BB610023FB6107F114031946094804F01B
:103760008BF800220021352002F020FD352002F0E8
:103770003AFD00BF2837BD4680BD00BF005400465B
:10378000000C02460000024280B485B000AF7860B1
:103790007B681B680B4A93420ED10B4BD3F88830E1
:1037A000094A43F48053C2F88830074BD3F8883075
:1037B00003F48053FB60FB6800BF1437BD465DF81F
:1037C000047B704700300240000C024680B483B096
:1037D00000AF78607B681B68084A934207D1084BAA
:1037E000D3F88830064A23F48053C2F8883000BFEB
:1037F0000C37BD465DF8047B704700BF00300240C7
:10380000000C024680B596B000AF786007F1100357
:1038100048220021184638F0D5F97B681B68164A03
:10382000934225D14FF480533B610023BB6407F1E1
:103830001003184605F076FD0346002B01D0FFF774
:103840007BFE0E4BD3F8A8300C4A43F40063C2F859
:10385000A8300A4BD3F8A83003F40063FB60FB6880
:1038600000220421312002F0A1FC312002F0BBFC37
:1038700000BF5837BD4680BD00440046000C0246DC
:1038800080B485B000AF78600A4BD3F88830094A1D
:1038900043F40033C2F88830064BD3F8883003F481
:1038A0000033FB60FB6800BF1437BD465DF8047B46
:1038B000704700BF000C024680B596B000AF78603C
:1038C00007F1100348220021184638F07BF97B6885
:1038D0001B68174A934226D14FF480433B614FF453
:1038E00080733B6507F11003184605F01BFD034686
:1038F000002B01D0FFF720FE0E4BD3F8A8300D4A65
:1039000043F40013C2F8A8300A4BD3F8A83003F4EC
:103910000013FB60FB6800220421022002F046FC39
:10392000022002F060FC00BF5837BD4680BD00BFDA
:1039300000780046000C024680B59CB000AF78606D
:1039400007F15C0300221A605A609A60DA601A611B
:1039500007F1140348220021184638F033F97B6838
:103960001B687A4A934240F0ED804FF480637B619C
:1039700008237B6407F11403184605F0D3FC0346C3
:10398000002B01D0FFF7D8FD714BD3F8A830704A57
:1039900043F02003C2F8A8306D4BD3F8A83003F0F1
:1039A00020033B613B696A4BD3F88C30684A43F093
:1039B0000103C2F88C30664BD3F88C3003F001035E
:1039C000FB60FB68624BD3F88C30614A43F0020322
:1039D000C2F88C305E4BD3F88C3003F00203BB602E
:1039E000BB680123FB6502233B6600237B66002343
:1039F000BB660623FB6607F15C031946554803F0D6
:103A00003BFF4FF44073FB6502233B6600237B665C
:103A10000023BB660623FB6607F15C0319464E488C
:103A200003F02AFF4D4B4E4A1A604C4B04225A6059
:103A30004A4B00229A60494B4FF48062DA60474B50
:103A400008221A61454B00225A61444B01229A61B7
:103A5000424B4FF48032DA61404B00221A623F4BF6
:103A600001225A623D4B01229A623C4B0022DA62EB
:103A70003A4B00221A63394B00225A63374802F04E
:103A8000DFFE0346002B01D0FFF756FD7B68334A6B
:103A9000C3F88020314A7B68D36510212F4803F09A
:103AA0006AFA0346002B01D0FFF746FD2D4B2E4A44
:103AB0001A602C4B03225A602A4B00229A60294B31
:103AC0000022DA60274B00221A61264B4FF40022B5
:103AD0005A61244B01229A61224B4FF48032DA6101
:103AE000204B00221A621F4B01225A621D4B0122F9
:103AF0009A621C4B0022DA621A4B00221A63194B9D
:103B000000225A63174802F09BFE0346002B01D0A7
:103B1000FFF712FD7B68134AC3F88420114A7B68C3
:103B2000D36510210F4803F026FA0346002B01D07D
:103B3000FFF702FD002205213F2002F037FB3F2066
:103B400002F051FB00BF7037BD4680BD002000462B
:103B5000000C024600000242000402423C400020E9
:103B600050020240B4400020D001024080B584B031
:103B700000AF78607B681B68124A93421ED1124BDB
:103B8000D3F8A430104A43F40063C2F8A4300E4BBB
:103B9000D3F8A43003F40063FB60FB68002200212B
:103BA000252002F003FB252002F01DFB002200214E
:103BB000262002F0FBFA262002F015FB00BF10378A
:103BC000BD4680BD002C0140000C024680B485B08B
:103BD00000AF78607B681B68B3F1804F0FD1154B45
:103BE000D3F89C30134A43F00103C2F89C30114BC8
:103BF000D3F89C3003F00103FB60FB6813E07B68A3
:103C00001B680D4A93420ED10A4BD3F89C30094AE7
:103C100043F00203C2F89C30064BD3F89C3003F00B
:103C20000203BB60BB6800BF1437BD465DF8047B70
:103C3000704700BF000C02460004004080B58AB007
:103C400000AF786007F1140300221A605A609A608E
:103C5000DA601A617B681B68B3F1804F1FD1344B67
:103C6000D3F88C30324A43F00103C2F88C30304B29
:103C7000D3F88C3003F001033B613B6980237B6107
:103C80000223BB610023FB6100233B6201237B62B3
:103C900007F114031946274803F0EEFD44E07B6862
:103CA0001B68254A93423FD1214BD3F88C30204AE0
:103CB00043F00103C2F88C301D4BD3F88C3003F075
:103CC0000103FB60FB681A4BD3F88C30184A43F0B1
:103CD0000203C2F88C30164BD3F88C3003F0020389
:103CE000BB60BB684FF4C0637B610223BB610023F0
:103CF000FB6100233B6202237B6207F11403194638
:103D00000C4803F0B9FD4FF480437B610223BB6193
:103D10000023FB6100233B6202237B6207F1140353
:103D20001946064803F0A8FD00BF2837BD4680BDF0
:103D3000000C02460000024200040040000402425F
:103D400080B59CB000AF786007F15C0300221A6078
:103D50005A609A60DA601A6107F114034822002160
:103D6000184637F02FFF7B681B68794A934240F072
:103D7000EA8001237B610223BB6107F1140318462B
:103D800005F0D0FA0346002B01D0FFF7D5FB714BAD
:103D9000D3F8A4306F4A43F48043C2F8A4306D4B8B
:103DA000D3F8A43003F480433B613B69694BD3F8FB
:103DB0008C30684A43F00203C2F88C30654BD3F86C
:103DC0008C3003F00203FB60FB68624BD3F88C304D
:103DD000604A43F00103C2F88C305E4BD3F88C305C
:103DE00003F00103BB60BB684FF48053FB65022303
:103DF0003B6600237B660023BB660723FB6607F157
:103E00005C031946544803F037FD4FF48073FB659B
:103E100002233B6600237B660023BB660723FB6609
:103E200007F15C0319464D4803F026FD4C4B4D4A03
:103E30001A604B4B0B225A60494B00229A60484B48
:103E40000022DA60464B00221A61454B4FF40022F3
:103E50005A61434B00229A61414B0022DA61404B88
:103E600000221A623E4B01225A623D4B01229A62A5
:103E70003B4B0022DA623A4B00221A63384B002295
:103E80005A63374802F0DCFC0346002B01D0FFF7F1
:103E900053FB7B68324AC3F88020314A7B68D36584
:103EA00010212F4803F067F80346002B01D0FFF7DD
:103EB00043FB2D4B2D4A1A602B4B0C225A602A4B88
:103EC00000229A60284B4FF48062DA60264B082269
:103ED0001A61254B00225A61234B00229A61224B22
:103EE0000022DA61204B00221A621F4B01225A6223
:103EF0001D4B01229A621C4B0022DA621A4B0022EF
:103F00001A63194B00225A63174802F099FC0346C2
:103F1000002B01D0FFF710FB7B68134ADA67124AC7
:103F20007B68D3651021104803F025F80346002B69
:103F300001D0FFF701FB002207212E2002F036F905
:103F40002E2002F050F900BF7037BD4680BD00BF83
:103F500000380140000C0246000402420000024208
:103F6000D8420020D00002405043002050000240C0
:103F700080B582B000AF78607B681B68134A9342BB
:103F80001FD1134BD3F8A430114A23F48043C2F855
:103F9000A4304FF480510F4803F0C4FD4FF48071FA
:103FA0000D4803F0BFFD7B68D3F88030184602F05F
:103FB000DBFC7B68DB6F184602F0D6FC2E2002F09B
:103FC00020F900BF0837BD4680BD00BF0038014062
:103FD000000C0246000402420000024280B483B09A
:103FE00000AF0346FB7197F90730002B0BDBFB7921
:103FF00003F01F02074997F907305B09012000FA17
:1040000002F241F8232000BF0C37BD465DF8047B67
:10401000704700BF00E100E080B483B000AF03460A
:10402000FB7197F90730002B12DBFB7903F01F02BD
:104030000A4997F907305B09012000FA02F22033A0
:1040400041F82320BFF34F8F00BFBFF36F8F00BF36
:1040500000BF0C37BD465DF8047B704700E100E00F
:1040600080B400AF064BD3F80832054A23F48033FE
:10407000C2F8083200BFBD465DF8047B704700BF40
:10408000000C024680B483B000AF78607B686FF0AC
:1040900001021A6100BF0C37BD465DF8047B704712
:1040A00080B483B000AF78607B681B6903F00103C4
:1040B000012B01D1012300E0002318460C37BD4637
:1040C0005DF8047B704780B400AF00BFFDE780B4AB
:1040D00000AF00BFFDE780B400AF00BFFDE780B4D4
:1040E00000AF00BFFDE780B400AF00BFFDE780B4C4
:1040F00000AF00BFBD465DF8047B704780B400AFE1
:1041000000BFBD465DF8047B704780B400AF00BFC0
:10411000BD465DF8047B704780B500AF00F090FAB3
:1041200000BF80BD80B500AF034805F007FD024821
:1041300005F04CFE00BF80BD7C3F002080B500AF85
:104140000C4B5B6D03F01003102B05D1094B1022B3
:104150009A6515F0BFF90AE0064B5B6D03F040036A
:10416000402B04D1034B40229A6515F02FF900BF74
:1041700080BD00BF000C024680B500AF024802F0CF
:104180008DFD00BF80BD00BF5043002080B500AF53
:10419000024802F083FD00BF80BD00BFD84200206E
:1041A00080B500AF024802F079FD00BF80BD00BFBE
:1041B000B440002080B500AF024802F06FFD00BFA0
:1041C00080BD00BF3C40002080B500AF024802F037
:1041D00065FD00BF80BD00BF783E002080B500AF08
:1041E000024807F06FFE00BF80BD00BF2C410020D9
:1041F00080B500AF024807F065FE00BF80BD00BF7C
:104200002C41002080B500AF024808F04DFF00BFF0
:1042100080BD00BF1042002080B500AF024803F00F
:10422000F2FE00BF80BD00BF203F002080B500AF80
:104230000648FFF735FF0346012B04D10348FFF77B
:1042400021FF15F075F900BF80BD00BF004401409B
:1042500080B500AF024801F037FE00BF80BD00BF4F
:10426000F03E002080B500AF024806F0A3FE00BF7C
:1042700080BD00BFAC3F002080B500AF06490020E4
:10428000FCF716FE054B1B680133044A1360044813
:1042900000F0B6FE00BF80BD840000204CE400208A
:1042A0000C3E002080B500AF064B1B68002B02D0EF
:1042B000044B1B689847FFF7D3FEBFF36F8F00BF17
:1042C00000BF80BD2429012080B500AF3D20FFF74D
:1042D000A3FE0C4B1B68002B02D00A4B1B689847AF
:1042E000094B1B78DBB2002B07D0002205213D20B3
:1042F00001F05CFF044B00221A703D20FFF76EFEB8
:1043000000BF80BD282901204429012080B586B046
:1043100000AF7860144A154BD31A7B617B693B610F
:10432000134B1B68002B02D1114B124A1A60104B21
:104330001A687B6813443A699A4207D237F058FCEE
:1043400003460C221A604FF0FF3309E0084B1B684C
:10435000FB60074B1A687B681344054A1360FB68CF
:1043600018461837BD4680BD00000220001000002E
:1043700050E40020D871012080B400AF074BD3F87F
:104380008830064A43F47003C2F88830034B044A6D
:104390009A6000BFBD465DF8047B704700ED00E009
:1043A0000000000880B489B000AF4F4BDB6903F018
:1043B0000C03082B02D00C2B0BD07DE04A4B1B6862
:1043C0001B0D03F00103494A22FA03F3484A136024
:1043D00076E0454B9B6AFB61434B5B6B7B61FB6902
:1043E0001B0A03F0070301333B617B69C3F3080336
:1043F0000133FB607B691B0E03F07F030133BB605D
:10440000FB6903F01003002B0BD0374B9B6BDB08D1
:10441000C3F30C0307EE903AF8EE677AC7ED067A1D
:1044200002E04FF00003BB61FB6903F003037B6014
:104430007B68022B03D07B68032B03D00CE02D4B51
:10444000FB610CE0284B1B681B0D03F00103274A9E
:1044500022FA03F3FB6102E00023FB6100BFFB696A
:1044600007EE903AF8EE676A3B6907EE903AF8EE8D
:10447000677A86EEA77AFB6807EE903AF8EE676AED
:1044800097ED066ADFED1C5AC6EE257A76EEA77A1E
:1044900067EE277AC7ED007ABB6807EE903AB8EE70
:1044A000677AD7ED006AC6EE877AFCEEE77A17EEF8
:1044B000902A0F4B1A6003E00D4B0E4A1A6000BFA2
:1044C000094B1B6A03F007030C4AD35CFB61084BE2
:1044D0001A68FB6922FA03F3054A136000BF243708
:1044E000BD465DF8047B7047000C02460048E801B9
:1044F000980000200024F40000000046F8E50308BE
:10450000FEE7000080B500AF0D4B1B680C4A43F47A
:1045100080731360032001F03EFEFFF743FF042089
:1045200001F0BCFE0E2000F00DF80346002B01D078
:10453000012302E0FFF706F80023184680BD00BF04
:104540000020024080B584B000AF78600023FB609B
:10455000364B1B78002B01D1012362E0344B1B68E2
:1045600003F00403042B0CD1324B1A682F4B1B7839
:1045700019464FF47A73B3FBF1F3B2FBF3F3FB602C
:104580003DE02D4BD3F8E03003F44003BB60BB6843
:10459000B3F5000F25D0BB68B3F5000F2ED8BB686C
:1045A000002B04D0BB68B3F5800F0DD026E0214B63
:1045B0001A681E4B1B7819464FF4FA53B3FBF1F3FC
:1045C000B2FBF3F3FB601AE0184B1B781A464FF46A
:1045D0007A73B3FBF2F34FF4FA42B2FBF3F3FB60EE
:1045E0000DE0124B1B781A464FF47A73B3FBF2F3CB
:1045F0004FF40042B2FBF3F3FB6000E000BFF86849
:1046000001F00EFE0346002B01D0012309E0002239
:1046100079684FF0FF3001F0C9FD084A7B681360EC
:10462000002318461037BD4680BD00BFA000002003
:1046300010E000E098000020000C02469C000020E2
:1046400080B400AF064B1B781A46064B1B68134418
:10465000044A136000BFBD465DF8047B704700BF8D
:10466000A000002054E4002080B400AF034B1B687E
:104670001846BD465DF8047B704700BF54E4002037
:1046800080B584B000AF7860FFF7EEFFB8607B685C
:10469000FB60FB68B3F1FF3F05D00A4B1B781A465D
:1046A000FB681344FB6000BFFFF7DEFF0246BB68F8
:1046B000D31AFA689A42F7D800BF00BF1037BD4638
:1046C00080BD00BFA000002080B483B000AF786040
:1046D00039607B681B6823F440023B681A437B689F
:1046E0001A6000BF0C37BD465DF8047B704780B48C
:1046F00083B000AF78607B681B6803F44003184602
:104700000C37BD465DF8047B704780B485B000AFC0
:10471000F860B9607A60FB685A69BB6803F004030B
:10472000072101FA03F3DB431A40BB6803F00403DB
:10473000796801FA03F31A43FB685A6100BF143722
:10474000BD465DF8047B704780B483B000AF7860ED
:104750007B68DB6803F44063002B01D1012300E098
:10476000002318460C37BD465DF8047B704780B4C3
:1047700085B000AFF860B9607A60FB689A6ABB6880
:1047800003F01F030F2101FA03F3DB431A407B6898
:104790009B0E03F00F01BB6803F01F0301FA03F344
:1047A0001A43FB689A6200BF1437BD465DF8047B6C
:1047B000704780B483B000AF786039607B689A6AD4
:1047C0003B68C3F311031A437B689A6200BF0C373E
:1047D000BD465DF8047B704780B483B000AF78605D
:1047E00039607B689A6A3B68C3F31103DB431A4064
:1047F0007B689A6200BF0C37BD465DF8047B70474A
:1048000080B483B000AF78607B68DB6803F003039B
:1048100018460C37BD465DF8047B704780B485B000
:1048200000AFF860B9607A60FB685A69BB681B0228
:10483000DB431A40BB6819027B680B4023F07C43C2
:1048400023F0FF031A43FB685A6100BF1437BD46CB
:104850005DF8047B704780B483B000AF78607B68FC
:104860009B6823F0104323F0170343F080527B68CA
:104870009A6000BF0C37BD465DF8047B704780B47A
:1048800083B000AF78607B689B6803F08053B3F11E
:10489000805F01D1012300E0002318460C37BD469C
:1048A0005DF8047B704780B483B000AF78607B68AC
:1048B0009B6823F0004323F0170343F001027B6859
:1048C0009A6000BF0C37BD465DF8047B704780B42A
:1048D00083B000AF78607B689B6823F0004323F0CF
:1048E000170343F002027B689A6000BF0C37BD4695
:1048F0005DF8047B704780B483B000AF78607B685C
:104900009B6803F00103012B01D1012300E0002388
:1049100018460C37BD465DF8047B704780B483B001
:1049200000AF78607B689B6803F00203022B01D123
:10493000012300E0002318460C37BD465DF8047BD8
:10494000704780B483B000AF78607B689B6823F0C9
:10495000004323F0170343F004027B689A6000BF12
:104960000C37BD465DF8047B704780B483B000AF60
:1049700078607B689B6823F0004323F0170343F0C3
:1049800010027B689A6000BF0C37BD465DF8047B5F
:10499000704780B483B000AF78607B689B6803F099
:1049A0000403042B01D1012300E0002318460C3737
:1049B000BD465DF8047B704780B483B000AF78607B
:1049C0007B681B6803F48053B3F5805F01D101233A
:1049D00000E0002318460C37BD465DF8047B7047A5
:1049E00080B483B000AF78607B684FF480521A6067
:1049F00000BF0C37BD465DF8047B704780B588B0BA
:104A000000AF78600023FB770023BB6100237B614C
:104A10007B68002B01D1012390E17B681B69002B8F
:104A20007B681B6E002B09D17868FEF7B3FD7B68AD
:104A300000225A667B68002283F85C207B681B6832
:104A40001846FFF71CFF0346002B32D17B681B681A
:104A50001846FFF7C5FF7B681B681846FFF7FBFE8B
:104A6000FFF702FE38611CE0FFF7FEFD02463B69DE
:104A7000D31A012B15D97B681B681846FFF79CFFDA
:104A80000346002B0DD17B681B6E43F010027B6840
:104A90001A667B685B6E43F001027B685A660123ED
:104AA0004CE17B681B681846FFF786FF0346002B26
:104AB000DAD07B681B681846FFF7E1FE0346002B3F
:104AC0000DD17B681B6E43F010027B681A667B6811
:104AD0005B6E43F001027B685A660123FB777B68BB
:104AE0001B681846FFF755FFF8607B681B6E03F0E4
:104AF0001003002B40F01981FB68002B40F015815A
:104B00007B681B6E23F4817343F002027B681A6694
:104B10007B681B681846FFF7EEFE0346002B36D174
:104B20007B681B68DB6823F00C017B689A687B68F4
:104B30001B680A43DA607B685B6D7A6913437B61AB
:104B40007B6893F84430012B0CD17B689A6C7B68AE
:104B5000DB6C1A437B681B6D1A437B69134343F07C
:104B600001037B617B681B681A69764B13407A6886
:104B7000126879690B431361734B1B6823F470123D
:104B80007B685B6803F470136F4913430B607B68A9
:104B90001B7E9A037B6893F820305B0313437A688B
:104BA000926B002A02D04FF4805200E000221A4398
:104BB0007B68DB681A437B681B69002B04DA7B681F
:104BC0001B6923F0004301E04FF400131A437B6894
:104BD00093F834305B001343BA691343BB617B68BD
:104BE00093F82830012B15D17B6893F82030002BE7
:104BF00004D1BB6943F48033BB610BE07B681B6E5F
:104C000043F020027B681A667B685B6E43F001020A
:104C10007B685A667B68DB6A002B09D07B68DB6A9D
:104C200003F4E0727B681B6B1343BA691343BB61E7
:104C30007B681B68DA68454B13407A681268B9696B
:104C40000B43D3607B681B681A693E4B13407A683C
:104C5000126879690B4313617B681B685B6C23F0F6
:104C600003017B685B7E1A467B68DB691A437B68BD
:104C70001B680A435A647B6818687B68DB6B1A46BA
:104C80000021FFF742FD7B6818687B681B6C1A46A1
:104C90002F49FFF73AFD7B681B69002B08D17B6821
:104CA0001B689A6A7B681B6862F00F029A6217E0C1
:104CB0007B681B69B3F5001F12D17B681B689B6A78
:104CC0007B685B6A013B9B0003F01C036FF00F02E3
:104CD00002FA03F17B689A6E7B681B680A439A624A
:104CE0007B681B68DA681B4B1340BA699A420BD188
:104CF0007B6800225A667B681B6E23F0030343F037
:104D000001027B681A6618E07B681B6E23F01203B1
:104D100043F010027B681A667B685B6E43F0010209
:104D20007B685A660123FB7707E07B681B6E43F0C4
:104D300010027B681A660123FB77FB7F1846203739
:104D4000BD4680BD02FCFFDF081302460D82DEFF78
:104D500004FFFF03F3FF3F8380B59CB000AFF86012
:104D6000B9607A60FB681B681846FFF712FE0346BD
:104D7000002B40F0D580FB6893F85C30012B01D10B
:104D80000223D2E0FB68012283F85C20FB681B68E9
:104D9000DB6803F00103002B14D1FB681B68184685
:104DA000FFF7A9FD0346002B04D0FB681B681846DB
:104DB000FFF78DFDFB681B68DA68FB681B6842F033
:104DC0000102DA60F86800F0B3FB034687F86F3041
:104DD00097F86F30002B40F0A680FB681B6E23F421
:104DE000706323F0010343F48072FB681A66FB686A
:104DF00000225A66FB689B6D4E4A1A66FB689B6DE3
:104E00004D4A5A66FB689B6D4C4A9A66FB681B6864
:104E10001C221A60FB68002283F85C20FB681B6878
:104E20005A68FB681B6842F010025A60FB689B6D71
:104E30001B6D03F08003002B4BD0FB689B6D5B6FF9
:104E4000002B42D0FB689B6D5B6F1B68002B3CD036
:104E5000FB689B6D5B6F1A6807F1100311461846DB
:104E600002F05AFA0346002B01D001235DE0BB6A31
:104E7000022B03D17B689B00BB6608E0BB6A012B59
:104E800003D17B685B00BB6601E07B68BB66FB68A7
:104E90009B6D5B6F1B68BA6E9A60FB681B6803F1C1
:104EA0004002FB689B6D5B6F1B68DA60FB689B6D63
:104EB0005B6F1B68BA681A61FB689B6D184602F04D
:104EC00097F9034687F86F3024E0012387F86F30A5
:104ED00020E0FB689B6D9B69022B03D17B689B00E4
:104EE000BB660AE0FB689B6D9B69012B03D17B6865
:104EF0005B00BB6601E07B68BB66FB68986DFB6886
:104F00001B6840331946BA68BB6E01F0C2FD034608
:104F100087F86F30FB681B681846FFF712FD02E048
:104F2000022387F86F3097F86F3018467037BD4608
:104F300080BD00BFFB560008C5570008E1570008B8
:104F400080B584B000AF78607B6893F85C30012B4B
:104F500001D1022350E07B68012283F85C2078684D
:104F600000F0A0FA0346FB73FB7B002B3FD17B686C
:104F70009B6D93F85430DBB2022B0FD17B689B6D95
:104F8000184601F0E6FD0346FB73FB7B002B05D0C2
:104F90007B681B6E43F040027B681A667B681B6867
:104FA0005A687B681B6822F010025A60FB7B002B5A
:104FB00005D1786800F042FB0346FB7302E0786895
:104FC00000F03CFBFB7B002B09D17B681B6E23F4BC
:104FD000807323F0010343F001027B681A667B684B
:104FE0001B68DA687B681B6822F00102DA607B6864
:104FF000002283F85C20FB7B18461037BD4680BD3D
:1050000080B586B000AF786000237B617B681B6849
:105010001B683B617B681B685B68FB603B6903F056
:105020000203002B17D0FB6803F00203002B12D001
:105030007B681B6E03F01003002B05D17B681B6E91
:1050400043F400627B681A66786800F0AEFC7B6807
:105050001B6802221A603B6903F00403002B04D092
:10506000FB6803F00403002B09D13B6903F008033C
:10507000002B52D0FB6803F00803002B4DD07B6857
:105080001B6E03F01003002B05D17B681B6E43F4ED
:1050900000727B681A667B681B681846FFF754FB32
:1050A0000346002B32D07B6893F82030002B2DD1A3
:1050B0007B681B681B6803F00803082B26D17B68FC
:1050C0001B681846FFF765FC0346002B12D17B686E
:1050D0001B685A687B681B6822F00C025A607B6868
:1050E0001B6E23F4807323F0010343F001027B68FD
:1050F0001A660BE07B681B6E43F020027B681A6621
:105100007B685B6E43F001027B685A667868FCF747
:105110008DF87B681B680C221A603B6903F08003E2
:10512000002B11D0FB6803F08003002B0CD07B68B0
:105130001B6E43F480327B681A66786800F085F84D
:105140007B681B6880221A603B6903F48073002B24
:1051500012D0FB6803F48073002B0DD07B681B6EAC
:1051600043F400327B681A66786800F00AFC7B68BA
:105170001B684FF480721A603B6903F40073002BC4
:1051800012D0FB6803F40073002B0DD07B681B6EFC
:1051900043F480227B681A66786800F0FCFB7B6829
:1051A0001B684FF400721A603B6903F01003002B78
:1051B0002BD0FB6803F01003002B26D07B689B6B81
:1051C000002B02D101237B6109E07B681B68184634
:1051D000FFF716FB0346002B01D001237B617B699F
:1051E000012B0ED17B681B6E43F480627B681A66CC
:1051F0007B685B6E43F002027B685A667868FCF756
:1052000057F87B681B6810221A603B6903F48053CF
:10521000002B0CD0FB6803F48053002B07D0786878
:1052200000F0CDFB7B681B684FF480521A6000BF12
:105230001837BD4680BD80B483B000AF786000BF32
:105240000C37BD465DF8047B704780B483B000AF77
:10525000786000BF0C37BD465DF8047B70470000E6
:1052600080B588B000AF786039600023FB770023F9
:10527000BB607B681B69B3F1004F7B6893F85C30BF
:10528000012B01D10223F0E07B68012283F85C202E
:105290007B681B681846FFF77CFB0346002B40F039
:1052A000D7803B685B68022B00F09E807B681B699F
:1052B000B3F1004F04D07B681B696E4A934208D15A
:1052C0007B681A683B681B6819461046FFF771FA3D
:1052D00041E07B689A6E3B685B6803F01F030F2117
:1052E00001FA03F3DB431A403B681B68C3F3110365
:1052F000002B05D13B681B689B0E03F01F0311E0D8
:105300003B681B683B613B6993FAA3F3FB60FB6856
:105310007B617B69002B01D1202303E07B69B3FA19
:1053200083F3DBB23968496801F01F018B401A43EF
:105330007B689A663B685B689B085A1C7B685B6A63
:105340009A4208D87B6818683B6859683B681B68B4
:105350001A46FFF70CFA7B6818683B6819683B68C7
:105360009B681A46FFF75AFA3B681B68002B77DAEE
:105370004148FFF7BCF9B8613B681B683F4A93425C
:1053800020D1BB6903F40003002B1BD1BB6943F49C
:10539000000319463848FFF797F9394B1B689B09FA
:1053A000384AA2FB03239B095A1C13465B00134493
:1053B0009B00BB6002E0BB68013BBB60BB68002B8D
:1053C000F9D14DE03B681B682F4A934248D1BB6935
:1053D00003F48003002B43D1BB6943F480031946D7
:1053E0002548FFF771F93BE07B681B69B3F1004F7B
:1053F00004D07B681B691F4A934207D17B681A68F7
:105400003B681B6819461046FFF7E6F93B681B68C6
:10541000002B25DA1848FFF76AF9B8613B681B686A
:10542000164A934207D1BB6923F400031946124878
:10543000FFF74AF914E03B681B68134A93420FD107
:10544000BB6923F4800319460B48FFF73DF907E0D9
:105450007B681B6E43F020027B681A660123FB7792
:105460007B68002283F85C20FB7F18462037BD460E
:1054700080BD00BF1000008008130246002000B469
:1054800098000020632D3E050100008080B483B0A9
:1054900000AF78607B681B6E18460C37BD465DF820
:1054A000047B704780B584B000AF78607B681B6870
:1054B0001846FFF76EFA0346002B33D07B681B6853
:1054C0001846FFF72BFA0346002B04D17B681B68B4
:1054D0001846FFF74AFAFFF7C7F8F8601BE0FFF736
:1054E000C3F80246FB68D31A022B14D97B681B68E9
:1054F0009B6803F00403002B0DD07B681B6E43F008
:1055000010027B681A667B685B6E43F001027B6861
:105510005A66012307E07B681B689B6803F004035D
:10552000002BDCD1002318461037BD4680BD00009B
:1055300080B584B000AF78600023BB607B681B68D7
:105540001846FFF7D8F90346002B69D17B681B6822
:105550009A68364B1340002B0DD07B681B6E43F0CE
:1055600010027B681A667B685B6E43F001027B6801
:105570005A66012355E07B681B681846FFF793F9CC
:105580002B48FFF7B4F8034603F40003002B0FD0B9
:10559000284B1B689B09284AA2FB03239B09013364
:1055A000BB6002E0BB68013BBB60BB68002BF9D16C
:1055B0007B685B7E012B33D0FFF756F8F86028E05C
:1055C0007B681B681846FFF796F90346002B04D149
:1055D0007B681B681846FFF766F9FFF745F8024637
:1055E000FB68D31A022B14D97B681B681B6803F075
:1055F0000103012B0DD07B681B6E43F010027B680A
:105600001A667B685B6E43F001027B685A66012371
:1056100007E07B681B681B6803F00103012BCFD1F7
:10562000002318461037BD4680BD00BF170000801C
:105630000813024698000020632D3E0580B584B013
:1056400000AF78607B681B681846FFF767F9F86061
:105650007B681B681846FFF74EF90346002B47D0BE
:10566000FB68002B44D17B681B689B6803F0050333
:10567000012B0CD17B681B681846FFF728F97B6863
:105680001B6803221A60FEF7EFFFB86029E07B6811
:105690001B6E43F010027B681A667B685B6E43F0FA
:1056A00001027B685A66012323E0FEF7DDFF024614
:1056B000BB68D31A022B14D97B681B689B6803F064
:1056C0000103002B0DD07B681B6E43F010027B683A
:1056D0001A667B685B6E43F001027B685A660123A1
:1056E00007E07B681B689B6803F00103002BDCD19B
:1056F000002318461037BD4680BD80B584B000AF8A
:1057000078607B68DB6DFB60FB681B6E03F0500309
:10571000002B44D1FB681B6E43F40072FB681A66D1
:10572000FB681B681846FFF70FF80346002B32D0C2
:10573000FB6893F82030002B2DD1FB681B681B6899
:1057400003F00803082B26D1FB681B681846FFF7F7
:1057500020F90346002B12D1FB681B685A68FB68CE
:105760001B6822F00C025A60FB681B6E23F48073E6
:1057700023F0010343F00102FB681A660BE0FB68AB
:105780001B6E43F02002FB681A66FB685B6E43F0F9
:105790000102FB685A66F868FBF748FD0EE0FB68FB
:1057A0001B6E03F01003002B03D0F868FBF780FD9D
:1057B00004E0FB689B6D9B6E7868984700BF1037CC
:1057C000BD4680BD80B584B000AF78607B68DB6D7E
:1057D000FB60F868FFF72FFD00BF1037BD4680BDA6
:1057E00080B584B000AF78607B68DB6DFB60FB68E0
:1057F0001B6E43F04002FB681A66FB685B6E43F069
:105800000402FB685A66F868FBF752FD00BF1037C8
:10581000BD4680BD80B483B000AF78607B689B6874
:1058200003F00103012B01D1012300E000231846FE
:105830000C37BD465DF8047B704780B483B000AF81
:1058400078607B689B6803F00043B3F1004F01D19F
:10585000012300E0002318460C37BD465DF8047BA9
:10586000704780B586B000AF78600023BB607B686E
:1058700093F85C30012B01D102237EE07B6801228A
:1058800083F85C207868FFF7D9FE0346FB757B68D8
:105890001B681846FFF7BEFF0346002B62D17B68EA
:1058A0001B6E23F4817343F002027B681A667B68E7
:1058B0001B685B6C03F001033B617B681B68DB6862
:1058C00003F00303FB607B681B68DA687B681B6876
:1058D00022F00302DA607B681B685A6C7B681B68E5
:1058E00022F001025A647B681B689A687B681B6817
:1058F00042F000429A6014E0BB680133BB60BB68B1
:10590000B3F52E3F0DD37B681B6E23F0120343F0DB
:1059100010027B681A667B68002283F85C200123F2
:105920002BE07B681B681846FFF787FF0346002BB8
:10593000E2D17B681B68D9687B681B68FA680A43F8
:10594000DA607B681B68596C7B681B683A690A439C
:105950005A647B681B6E23F0030343F001027B68EB
:105960001A6605E07B681B6E43F010027B681A66BE
:105970007B68002283F85C20FB7D18461837BD4603
:1059800080BD80B483B000AF786000BF0C37BD46E7
:105990005DF8047B704780B483B000AF786000BFCF
:1059A0000C37BD465DF8047B704780B483B000AF10
:1059B000786000BF0C37BD465DF8047B704780B44B
:1059C00083B000AF786000BF0C37BD465DF8047B44
:1059D0007047000080B483B000AF7860064BD3F806
:1059E000802005497B681343C1F8803000BF0C3725
:1059F000BD465DF8047B70470020024680B483B04A
:105A000000AF7860074BD3F880207B68DB43054903
:105A10001340C1F8803000BF0C37BD465DF8047BF1
:105A2000704700BF0020024680B483B000AF7860AA
:105A3000064BD3F8842005497B681343C1F88430B2
:105A400000BF0C37BD465DF8047B7047002002465E
:105A500080B483B000AF7860074BD3F884207B68B4
:105A6000DB4305491340C1F8843000BF0C37BD4605
:105A70005DF8047B704700BF0020024680B483B00D
:105A800000AF7860054B1A6804497B6813430B60CC
:105A900000BF0C37BD465DF8047B7047002002460E
:105AA00080B483B000AF7860064B1A687B68DB4334
:105AB000044913400B6000BF0C37BD465DF8047B02
:105AC000704700BF0020024680B483B000AF78600A
:105AD000054B5A6804497B6813434B6000BF0C3781
